:020000040800F2
:1000000000180020350700085106000857060008B0
:100010005D0600086306000869060008000000008D
:100020000000000000000000000000006F06000853
:100030007B06000800000000870600089306000801
:100040007D0700087D0700087D0700087D07000880
:100050007D0700087D0700089F060008AD06000820
:100060007D0700087D0700087D0700087D07000860
:100070007D0700087D0700087D0700087D07000850
:100080007D0700087D0700087D0700087D07000840
:100090007D0700087D0700087D0700087D07000830
:1000A0007D0700087D0700087D0700087D07000820
:1000B0007D0700087D070008000000007D0700089C
:1000C0007D07000800000000000000007D07000818
:1000D000000000007D0700087D0700080000000008
:1000E0007D0700087D0700087D070008000000006C
:1000F0000000000000000000000000000000000000
:0C01000000000000000000005FF808F1A3
:10010C0010B5054C237833B9044B13B10448AFF345
:10011C0000800123237010BD70000020000000003F
:10012C002C1E000808B5034B1BB103490348AFF361
:10013C00008008BD00000000740000202C1E000888
:10014C0080B500AF1E2000F077FB00224FF4005169
:10015C001C4800F0F3FD01224FF48051194800F0C7
:10016C00EDFD00224FF40061164800F0E7FD00227F
:10017C004FF48061134800F0E1FD00224FF4004180
:10018C00104800F0DBFD01224FF480410D4800F0D7
:10019C00D5FD00224FF480410A4800F0CFFD282104
:1001AC00002000F011F80C21002000F00DF80621C1
:1001BC00002000F009F80121002000F005F800BF34
:1001CC0080BD00BF000C014080B582B000AF03467B
:1001DC000A46FB711346BB71022000F02DFBFB7924
:1001EC00002B06D001224FF400415A4800F0A6FD26
:1001FC0005E000224FF40041564800F09FFD97F9AE
:10020C000630002B06DA01224FF48061514800F0D1
:10021C0095FD05E000224FF480614E4800F08EFD04
:10022C00BB7903F04003002B06D001224FF4006190
:10023C00484800F083FD05E000224FF4006145487A
:10024C0000F07CFDBB7903F02003002B06D00122CB
:10025C004FF480513F4800F071FD05E000224FF44F
:10026C0080513C4800F06AFDBB7903F01003002B71
:10027C0006D001224FF40051364800F05FFD05E036
:10028C0000224FF40051334800F058FD01224FF486
:10029C008041304800F052FD00224FF480412D483F
:1002AC0000F04CFDBB7903F00803002B06D00122B3
:1002BC004FF48061274800F041FD05E000224FF427
:1002CC008061244800F03AFDBB7903F00403002B55
:1002DC0006D001224FF400611E4800F02FFD05E00E
:1002EC0000224FF400611B4800F028FDBB7903F09D
:1002FC000203002B06D001224FF48051154800F068
:10030C001DFD05E000224FF48051124800F016FD4F
:10031C00BB7903F00103002B06D001224FF40051EE
:10032C000C4800F00BFD05E000224FF40051094889
:10033C0000F004FD01224FF48041064800F0FEFC61
:10034C0000224FF48041034800F0F8FC00BF08374E
:10035C00BD4680BD000C014080B582B000AF0346A5
:10036C003A60FB710B46BB71FB79032B36D801A2AB
:10037C0052F823F091030008A1030008B103000810
:10038C00C1030008BB79803BDBB219460020FFF7A4
:10039C001BFF17E0BB79403BDBB219460020FFF78F
:1003AC0013FF0FE0BB79703BDBB219460020FFF75F
:1003BC000BFF07E0BB79303BDBB219460020FFF79F
:1003CC0003FF00BF0AE03B6893F90030DBB219462B
:1003DC000120FFF7F9FE3B6801333B603B6893F962
:1003EC000030002BEFD100BF0837BD4680BD00BFE9
:1003FC0080B500AF01210020FFF7E6FE00BF80BDF5
:10040C0080B483B000AF0346FB80FB88012B11D175
:10041C00134B93F90030DBB20133DBB25AB2104B01
:10042C001A700F4B93F900300A2B14D10C4B092284
:10043C001A7010E0FB88022B0DD1094B93F9003098
:10044C00002B08DD064B93F90030DBB2013BDBB22D
:10045C005AB2034B1A7000BF0C37BD4680BC7047B4
:10046C008C00002080B582B000AF00F083F900F062
:10047C0025F800F05FF8FFF763FEFFF7B9FFFB7993
:10048C0018460B4B93F900300A4A0A2101F0A2F8E6
:10049C00094A00210020FFF75FFFFB791A460A2169
:1004AC000020FFF759FF322000F0C6F9E7E700BF44
:1004BC008C000020441E0008481E000880B590B037
:1004CC0000AF07F1180328220021184601F07AF832
:1004DC003B1D00221A605A609A60DA601A6102238E
:1004EC00BB610123BB621023FB6200237B6307F11A
:1004FC001803184600F052FC0346002B01D000F004
:10050C006BF80F237B600023BB600023FB60002390
:10051C003B6100237B613B1D0021184600F0BEFEB1
:10052C000346002B01D000F057F800BF4037BD4602
:10053C0080BD000080B586B000AF07F10803002233
:10054C001A605A609A60DA60204B9B691F4A43F02C
:10055C00080393611D4B9B6903F008037B607B6868
:10056C0000224FF47C411A4800F0E8FB0323BB60E7
:10057C00184BFB6001233B6107F108031946144833
:10058C0000F08AFA4FF47C43BB600123FB6000232C
:10059C003B6102237B6107F1080319460C4800F00C
:1005AC007BFA00220021062000F03FFA062000F022
:1005BC0058FA00220021072000F037FA072000F03B
:1005CC0050FA00BF1837BD4680BD00BF0010024076
:1005DC00000C01400000211080B400AF72B6FEE7A1
:1005EC0080B485B000AF154B9B69144A43F00103EE
:1005FC009361124B9B6903F00103BB60BB680F4B0B
:10060C00DB690E4A43F08053D3610C4BDB6903F07A
:10061C0080537B607B680A4B5B68FB60FB6823F054
:10062C00E063FB60FB6843F08063FB60044AFB689B
:10063C00536000BF1437BD4680BC704700100240A9
:10064C000000014080B400AFFEE780B400AFFEE7CD
:10065C0080B400AFFEE780B400AFFEE780B400AF1B
:10066C00FEE780B400AF00BFBD4680BC704780B4CD
:10067C0000AF00BFBD4680BC704780B400AF00BF68
:10068C00BD4680BC704780B500AF00F0B9F800BF24
:10069C0080BD80B500AF012000F068FB00BF80BDBD
:1006AC0080B500AF022000F061FB00BF80BD0000F0
:1006BC0080B586B000AF7860144A154BD31A7B61B5
:1006CC007B693B61134B1B68002B02D1114B124A07
:1006DC001A60104B1A687B6813443A699A4207D225
:1006EC0000F046FF02460C2313604FF0FF3309E085
:1006FC00084B1B68FB60074B1A687B681344054A60
:10070C001360FB6818461837BD4680BD00180020E2
:10071C000004000090000020A800002080B400AF6E
:10072C0000BFBD4680BC70470C480D490D4A0023E4
:10073C0002E0D458C4500433C4188C42F9D30A4A8A
:10074C000A4C002301E013600432A242FBD3FFF7F2
:10075C00E5FF00F013FFFFF785FE70470000002057
:10076C0070000020B01E000870000020A4000020C3
:10077C00FEE7000080B500AF084B1B68074A43F04A
:10078C0010031360032000F045F9002000F008F876
:10079C00FFF726FF0023184680BD00BF0020024053
:1007AC0080B582B000AF7860124B1A68124B1B7880
:1007BC0019464FF47A73B3FBF1F3B2FBF3F318461B
:1007CC0000F05DF90346002B01D001230EE07B689D
:1007DC000F2B0AD8002279684FF0FF3000F025F972
:1007EC00064A7B681360002300E001231846083793
:1007FC00BD4680BD00000020080000200400002041
:10080C0080B400AF054B1B781A46054B1B6813448C
:10081C00034A136000BFBD4680BC7047080000202F
:10082C009C00002080B400AF024B1B681846BD46EC
:10083C0080BC70479C00002080B584B000AF78600D
:10084C00FFF7F0FFB8607B68FB60FB68B3F1FF3F1C
:10085C0005D0094B1B781A46FB681344FB6000BF9C
:10086C00FFF7E0FF0246BB68D31AFA689A42F7D842
:10087C0000BF1037BD4680BD0800002080B485B095
:10088C0000AF78607B6803F00703FB600C4BDB6800
:10089C00BB60BA684FF6FF031340BB60FB681A02DB
:1008AC00BB68134343F0BF6343F40033BB60044A9B
:1008BC00BB68D36000BF1437BD4680BC704700BF17
:1008CC0000ED00E080B400AF044BDB681B0A03F0C2
:1008DC0007031846BD4680BC704700BF00ED00E022
:1008EC0080B483B000AF0346FB7197F90730002B3F
:1008FC000BDBFB7903F01F02064997F907305B0904
:10090C00012000FA02F241F8232000BF0C37BD464B
:10091C0080BC704700E100E080B483B000AF0346B8
:10092C003960FB7197F90730002B0ADB3B68DAB2B0
:10093C000C4997F907301201D2B20B4483F800230B
:10094C000AE03B68DAB20849FB7903F00F03043B79
:10095C001201D2B20B441A7600BF0C37BD4680BCD4
:10096C00704700BF00E100E000ED00E080B489B00A
:10097C0000AFF860B9607A60FB6803F00703FB61B5
:10098C00FB69C3F10703042B28BF0423BB61FB697C
:10099C000433062B02D9FB69033B00E000237B6187
:1009AC004FF0FF32BB6902FA03F3DA43BB681A401B
:1009BC007B699A404FF0FF317B6901FA03F3D9430D
:1009CC007B680B40134318462437BD4680BC7047E8
:1009DC0080B582B000AF78607B68013BB3F1807F5B
:1009EC0001D301230FE00A4A7B68013B53600F21BE
:1009FC004FF0FF30FFF790FF054B00229A60044B3D
:100A0C0007221A60002318460837BD4680BD00BF78
:100A1C0010E000E080B582B000AF78607868FFF736
:100A2C002DFF00BF0837BD4680BD80B586B000AF36
:100A3C000346B9607A60FB7300237B61FFF742FFCA
:100A4C0078617A68B9687869FFF790FF024697F980
:100A5C000F3011461846FFF75FFF00BF1837BD4631
:100A6C0080BD80B582B000AF0346FB7197F90730AB
:100A7C001846FFF735FF00BF0837BD4680BD80B56F
:100A8C0082B000AF78607868FFF7A2FF0346184683
:100A9C000837BD4680BD000080B48BB000AF7860D5
:100AAC00396000237B6200233B6221E101227B6AD7
:100ABC0002FA03F3FB613B681B68FA691340BB61E4
:100ACC00BA69FB699A4240F010813B685B68122B53
:100ADC0034D0122B0DD8022B2BD0022B04D8002B88
:100AEC0031D0012B1CD048E0032B43D0112B1BD051
:100AFC0043E0864A934226D0844A934206D8844ADD
:100B0C00934220D0834A93421DD036E0824A9342CE
:100B1C0019D0824A934216D0814A934213D02CE0CA
:100B2C003B68DB683B6228E03B68DB6804333B6274
:100B3C0023E03B68DB6808333B621EE03B68DB6804
:100B4C000C333B6219E03B689B68002B02D10423F9
:100B5C003B6212E03B689B68012B05D108233B628A
:100B6C007B68FA691A6108E008233B627B68FA69C2
:100B7C005A6102E000233B6200BFBB69FF2B01D826
:100B8C007B6801E07B6804337B61BB69FF2B02D877
:100B9C007B6A9B0002E07B6A083B9B003B617B69A4
:100BAC001A680F213B6901FA03F3DB431A40396AD7
:100BBC003B6901FA03F31A437B691A603B685B6873
:100BCC0003F08053002B00F09080564B9B69554AE4
:100BDC0043F001039361534B9B6903F00103BB602A
:100BEC00BB68514A7B6A9B08023352F82330FB6086
:100BFC007B6A03F003039B000F2202FA03F3DB432F
:100C0C00FA681340FB607B68484A93420DD07B68BE
:100C1C00474A934207D07B68464A934201D102234C
:100C2C0004E0032302E0012300E000237A6A02F0CF
:100C3C00030292009340FA681343FB603A497B6AC3
:100C4C009B080233FA6841F823203B685B6803F485
:100C5C008033002B06D0384B1A683749BB691343D5
:100C6C000B6006E0344B1A68BB69DB433249134016
:100C7C000B603B685B6803F40033002B06D02E4BF3
:100C8C005A682D49BB6913434B6006E02A4B5A68DE
:100C9C00BB69DB43284913404B603B685B6803F43A
:100CAC008013002B06D0244B9A682349BB6913434D
:100CBC008B6006E0204B9A68BB69DB431E491340EE
:100CCC008B603B685B6803F40013002B06D01A4B57
:100CDC00DA681949BB691343CB6006E0164BDA6836
:100CEC00BB69DB4314491340CB607B6A01337B62E5
:100CFC003B681A687B6A22FA03F3002B7FF4D6AEAA
:100D0C0000BF2C37BD4680BC704700BF00002110CF
:100D1C000000111000001210000031100000321001
:100D2C0000002210001002400000014000080140A9
:100D3C00000C0140001001400004014080B483B05D
:100D4C0000AF78600B467B8013467B707B78002B62
:100D5C0003D07A887B681A6103E07B881A047B686D
:100D6C001A6100BF0C37BD4680BC704780B582B09D
:100D7C0000AF0346FB80084B5A69FB881340002BDD
:100D8C0006D0054AFB885361FB881846FFF738FBF1
:100D9C0000BF0837BD4680BD0004014080B586B059
:100DAC0000AF78607B68002B01D101236CE27B687B
:100DBC001B6803F00103002B00F08780924B5B68EB
:100DCC0003F00C03042B0CD08F4B5B6803F00C036B
:100DDC00082B12D18C4B5B6803F48033B3F5803F46
:100DEC000BD1894B1B6803F40033002B6CD07B6850
:100DFC005B68002B68D1012346E27B685B68B3F526
:100E0C00803F06D1804B1B687F4A43F480331360CC
:100E1C002EE07B685B68002B0CD17B4B1B687A4AFD
:100E2C0023F480331360784B1B68774A23F48023B8
:100E3C0013601DE07B685B68B3F5A02F0CD1724B7F
:100E4C001B68714A43F4802313606F4B1B686E4A16
:100E5C0043F4803313600BE06B4B1B686A4A23F43A
:100E6C0080331360684B1B68674A23F4802313603C
:100E7C007B685B68002B13D0FFF7D4FC386108E06B
:100E8C00FFF7D0FC02463B69D31A642B01D903232C
:100E9C00FAE15D4B1B6803F40033002BF0D014E037
:100EAC00FFF7C0FC386108E0FFF7BCFC02463B6969
:100EBC00D31A642B01D90323E6E1534B1B6803F4CB
:100ECC000033002BF0D100E000BF7B681B6803F0FF
:100EDC000203002B63D04C4B5B6803F00C03002B1C
:100EEC000BD0494B5B6803F00C03082B1CD1464B11
:100EFC005B6803F48033002B16D1434B1B6803F063
:100F0C000203002B05D07B681B69012B01D0012348
:100F1C00BAE13D4B1B6823F0F8027B685B69DB0090
:100F2C00394913430B603AE07B681B69002B20D0D6
:100F3C00364B01221A60FFF775FC386108E0FFF7A9
:100F4C0071FC02463B69D31A022B01D903239BE1A6
:100F5C002D4B1B6803F00203002BF0D02A4B1B68AF
:100F6C0023F0F8027B685B69DB00274913430B60B5
:100F7C0015E0264B00221A60FFF754FC386108E09C
:100F8C00FFF750FC02463B69D31A022B01D903230D
:100F9C007AE11D4B1B6803F00203002BF0D17B6838
:100FAC001B6803F00803002B3AD07B689B69002B6D
:100FBC0019D0174B01221A60FFF734FC386108E096
:100FCC00FFF730FC02463B69D31A022B01D90323ED
:100FDC005AE10D4B5B6A03F00203002BF0D00120A9
:100FEC0000F0A8FA1CE00A4B00221A60FFF71AFC6A
:100FFC0038610FE0FFF716FC02463B69D31A022B4F
:10100C0008D9032340E100BF001002400000424217
:10101C00800442429E4B5B6A03F00203002BE9D131
:10102C007B681B6803F00403002B00F0A6800023F0
:10103C00FB75974BDB6903F08053002B0DD1944B60
:10104C00DB69934A43F08053D361914BDB6903F026
:10105C008053BB60BB680123FB758E4B1B6803F48C
:10106C008073002B18D18B4B1B688A4A43F4807316
:10107C001360FFF7D7FB386108E0FFF7D3FB02469C
:10108C003B69D31A642B01D90323FDE0814B1B6808
:10109C0003F48073002BF0D07B68DB68012B06D146
:1010AC007B4B1B6A7A4A43F0010313622DE07B6889
:1010BC00DB68002B0CD1764B1B6A754A23F00103BD
:1010CC001362734B1B6A724A23F0040313621CE015
:1010DC007B68DB68052B0CD16D4B1B6A6C4A43F0AB
:1010EC00040313626A4B1B6A694A43F001031362DF
:1010FC000BE0674B1B6A664A23F001031362644BD7
:10110C001B6A634A23F0040313627B68DB68002BC1
:10111C0015D0FFF787FB38610AE0FFF783FB024627
:10112C003B69D31A41F28832934201D90323ABE0D5
:10113C00574B1B6A03F00203002BEED014E0FFF7B1
:10114C0071FB38610AE0FFF76DFB02463B69D31A6D
:10115C0041F28832934201D9032395E04C4B1B6A30
:10116C0003F00203002BEED1FB7D012B05D1484B84
:10117C00DB69474A23F08053D3617B68DB69002B22
:10118C0000F08180424B5B6803F00C03082B61D0AC
:10119C007B68DB69022B46D13F4B00221A60FFF7BC
:1011AC0041FB386108E0FFF73DFB02463B69D31A6F
:1011BC00022B01D9032367E0354B1B6803F0007346
:1011CC00002BF0D17B681B6AB3F5803F08D1304B04
:1011DC005B6823F400327B689B682D4913434B609A
:1011EC002B4B5B6823F474127B68196A7B685B6A0F
:1011FC000B43274913434B60274B01221A60FFF71F
:10120C0011FB386108E0FFF70DFB02463B69D31A6E
:10121C00022B01D9032337E01D4B1B6803F000732D
:10122C00002BF0D02FE01C4B00221A60FFF7FAFACB
:10123C00386108E0FFF7F6FA02463B69D31A022B35
:10124C0001D9032320E0124B1B6803F00073002B21
:10125C00F0D118E07B68DB69012B01D1012313E08D
:10126C000B4B5B68FB60FB6803F480327B681B6A8A
:10127C009A4206D1FB6803F470127B685B6A9A424F
:10128C0001D0012300E0002318461837BD4680BD6D
:10129C0000100240007000406000424280B584B0F3
:1012AC0000AF786039607B68002B01D10123D0E05E
:1012BC006A4B1B6803F007033A689A4210D9674BD4
:1012CC001B6823F0070265493B6813430B60634BB3
:1012DC001B6803F007033A689A4201D00123B8E077
:1012EC007B681B6803F00203002B20D07B681B6813
:1012FC0003F00403002B05D0594B5B68584A43F4A8
:10130C00E06353607B681B6803F00803002B05D077
:10131C00534B5B68524A43F460535360504B5B68C9
:10132C0023F0F0027B689B684D4913434B607B684C
:10133C001B6803F00103002B40D07B685B68012B1A
:10134C0007D1474B1B6803F40033002B15D1012345
:10135C007FE07B685B68022B07D1414B1B6803F075
:10136C000073002B09D1012373E03D4B1B6803F084
:10137C000203002B01D101236BE0394B5B6823F096
:10138C0003027B685B68364913434B60FFF74AFAEC
:10139C00F8600AE0FFF746FA0246FB68D31A41F2FE
:1013AC008832934201D9032353E02D4B5B6803F041
:1013BC000C027B685B689B009A42EBD1274B1B6845
:1013CC0003F007033A689A4210D2244B1B6823F0AF
:1013DC00070222493B6813430B60204B1B6803F048
:1013EC0007033A689A4201D0012332E07B681B68FC
:1013FC0003F00403002B08D0194B5B6823F4E06264
:10140C007B68DB68164913434B607B681B6803F0F1
:10141C000803002B09D0124B5B6823F460527B68E5
:10142C001B69DB000E4913434B6000F021F80146A9
:10143C000B4B5B681B0903F00F030A4AD35C21FAC0
:10144C0003F3094A1360094B1B681846FFF7A8F908
:10145C00002318461037BD4680BD00BF0020024057
:10146C0000100240641E0008000000200400002050
:10147C0090B48AB000AF2A4B3C1D0FCB84E80F0010
:10148C00284B1B883B800023FB610023BB6100239E
:10149C007B6200237B6100233B62234B5B68FB6117
:1014AC00FB6903F00C03042B02D0082B03D02DE0B6
:1014BC001E4B3B622DE0FB699B0C03F00F0307F105
:1014CC002802134413F8243C7B61FB6903F480333A
:1014DC00002B13D0144B5B685B0C03F0010307F17A
:1014EC002802134413F8283CBB617B690F4A02FBAA
:1014FC0003F2BB69B2FBF3F37B6204E07B690C4A39
:10150C0002FB03F37B627B6A3B6202E0074B3B62AC
:10151C0000BF3B6A18462837BD4690BC704700BFD9
:10152C00501E0008601E00080010024000127A00D5
:10153C0000093D0080B485B000AF78600A4B1B6891
:10154C000A4AA2FB03235B0A7A6802FB03F3FB60E3
:10155C0000BFFB685A1EFA60002BF9D100BF14378C
:10156C00BD4680BC704700BF00000020D34D621008
:10157C00014B1868704700BF0C00002070B50025A7
:10158C000C4E0D4CA41BA410A54209D100F048FC34
:10159C0000250A4E0A4CA41BA410A54205D170BD0F
:1015AC0056F8253098470135EEE756F82530984720
:1015BC000135F2E7A81E0008A81E0008A81E0008A6
:1015CC00AC1E000803460244934200D1704703F856
:1015DC00011BF9E70CB430B5174B0C1E9DB01D6800
:1015EC0008DA8B234FF0FF302B601DB0BDE8304084
:1015FC0002B070474FF40273ADF814300CBF2346A1
:10160C0004F1FF33049307934FF6FF730290069097
:10161C00ADF81630209A21AB02A92846019300F0B0
:10162C0067F8431CBCBF8B232B60002CDDD0002241
:10163C00029B1A70D9E700BF0C0000202DE9F0477F
:10164C008E6882469E420C469046994637D88A89C7
:10165C0012F4906F31D00223256809696F1A6569FD
:10166C0005EB450595FBF3F509F101033B449D4260
:10167C0038BF1D46530530D5294600F037FB0646CA
:10168C0050B90C234FF0FF30CAF80030A38943F057
:10169C004003A381BDE8F0873A46216900F0B6FA11
:1016AC00A38923F4906343F08003A38126613E4415
:1016BC0026604E466561ED1BA5604E4500D94E4631
:1016CC0032464146206800F0ACFAA36800209B1B10
:1016DC00A36023681E442660DCE72A4600F060FB0A
:1016EC0006460028E2D12169504600F0B3FAC8E75B
:1016FC002DE9F04F1D468B899DB01F0680460C4688
:10170C0016460FD50B696BB9402100F0EFFA20603B
:10171C00206128B90C23C8F800304FF0FF30C8E026
:10172C00402363610023099320238DF82930302353
:10173C004FF0010B8DF82A30039537463D4615F8CE
:10174C00013B0BB1252B3ED1B7EB060A0BD0534610
:10175C00324621464046FFF771FF013000F0A4806D
:10176C00099B534409933B78002B00F09D80002388
:10177C004FF0FF32CDE90523049307938DF85330D6
:10178C001A932F46052217F8011B504800F030FA27
:10179C00049BD0B9D90644BF20228DF853201A07D8
:1017AC0044BF2B228DF853202A782A2A15D02F4695
:1017BC0000200A25079A394611F8013B303B092BCA
:1017CC004DD9B8B10FE02F46B8E7404A3D46801AD4
:1017DC000BFA00F018430490D3E7039A111D12681A
:1017EC000391002A01DB079204E0524243F002030A
:1017FC00079204933B782E2B0CD17B782A2B33D178
:10180C00039B02371A1D1B680392002BB8BF4FF0C5
:10181C00FF3305932E4D03223978284600F0E8F962
:10182C0038B14023401B03FA00F0049B01370343FB
:10183C0004933978062227487E1C8DF8281000F076
:10184C00D7F9002838D0244B13BB039B073323F064
:10185C00070308330393099B4B4409936DE705FB7E
:10186C00023201200F46A6E700230A25194601374C
:10187C000593384610F8012B303A092A03D9002B6E
:10188C00C8D00591C6E705FB012101230746F0E707
:10189C0003AB00932246114B04A94046AFF30080E2
:1018AC00B0F1FF3F8146D6D1A3895B063FF535AF3A
:1018BC0009981DB0BDE8F08F03AB00932246074B8F
:1018CC0004A9404600F082F8EAE700BF741E000845
:1018DC007A1E00087E1E0008000000004916000851
:1018EC002DE9F04791461F468A680B6906469342DC
:1018FC00B8BF1346C9F8003091F843200C46DDF808
:10190C00208012B10133C9F800302368990642BF18
:10191C00D9F800300233C9F80030256815F00605F7
:10192C0007D104F1190AE368D9F800209B1AAB42DD
:10193C0029DC94F843302268003318BF0123920647
:10194C002ED404F1430239463046C047013021D031
:10195C002368E56803F00603042B18BF0025D9F8AB
:10196C0000204FF0000908BFAD1AA368226908BF18
:10197C0025EAE5759342C4BF9B1AED181A344D4500
:10198C001AD1002008E00123524639463046C047A0
:10199C00013003D14FF0FF30BDE8F0870135C2E7CD
:1019AC003020E11881F843005A1C94F84510224469
:1019BC00023382F84310C4E70123224639463046ED
:1019CC00C0470130E6D009F10109D8E72DE9F04311
:1019DC0001F1430C0C46097E85B06E29174606466C
:1019EC0098460C9A00F0B38022D8632936D00AD8D6
:1019FC00002900F0B980582900F0838004F14205D9
:101A0C0084F8421032E0642901D06929F6D12068AB
:101A1C001368050603F104012AD51B681160002B1D
:101A2C0003DA2D225B4284F843206F480A2239E006
:101A3C00732900F09D8008D86F2920D07029DDD142
:101A4C00236843F02003236003E0752917D078291D
:101A5C00D4D17823654884F8453055E0136804F1F7
:101A6C004205191D1B68116084F8423001238CE07B
:101A7C001B6810F0400F116018BF1BB2CFE7136842
:101A8C002568181D1060280601D51B6802E0680641
:101A9C00FBD51B886F2914BF0A220822524800214B
:101AAC0084F843106568002DA560C0F2958021680C
:101ABC0021F004012160002B3DD1002D40F08E80DF
:101ACC006546082A0BD12368DB0708D523696268B1
:101ADC009A42DEBF302305F8013C05F1FF35ACEB33
:101AEC0005032361CDF800803B4603AA214630460E
:101AFC00FFF7F6FE01304DD14FF0FF3005B0BDE8D9
:101B0C00F083394884F84510136821681D1D1B6843
:101B1C0015600A060BD5CA0744BF41F020012160AD
:101B2C001BB9226822F0200222601022B7E74D0672
:101B3C0048BF9BB2EFE76546B3FBF2F102FB1133F2
:101B4C00C35C05F8013D0B460029F5D1B9E71368D4
:101B5C002568181D6169106028061B6801D519607D
:101B6C0002E06A06FBD51980002365462361B9E7BC
:101B7C001368191D11601D6862680021284600F069
:101B8C0037F808B1401B606063682361002384F858
:101B9C004330A7E723692A4639463046C04701300F
:101BAC00AAD023689B0713D4E068039B9842B8BF64
:101BBC001846A3E701234A4639463046C047013050
:101BCC009AD00135E368039A9B1AAB42F2DCEBE73F
:101BDC00002504F11909F5E7002BACD1037804F1C9
:101BEC00420584F842306CE7851E0008961E0008FA
:101BFC0010B5C9B202449042034601D1002303E060
:101C0C001C7801308C42F6D1184610BD10B5431E1D
:101C1C000A44914200D110BD11F8014B03F8014F59
:101C2C00F7E7884210B501EB020307D8421E994230
:101C3C000AD011F8014B02F8014FF8E78342F5D9AD
:101C4C008118D21AD34200D110BD13F8014D01F8FE
:101C5C00014DF7E738B50546002943D051F8043C4F
:101C6C000C1F002BB8BFE41800F0D0F81E4A136804
:101C7C00104633B9636014602846BDE8384000F064
:101C8C00C6B8A3420BD921686218934201BF1A68E7
:101C9C005B685218226063600460EDE713465A6873
:101CAC000AB1A242FAD919685818A0420BD120687F
:101CBC000144581882421960DED110685268014400
:101CCC0019605A60D8E702D90C232B60D4E720683E
:101CDC0021188A4201BF116852680918216062609C
:101CEC005C60C9E738BD00BF9400002070B5CD1C06
:101CFC0025F0030508350C2D38BF0C25002D0646A4
:101D0C0001DBA94203D90C233360002070BD00F025
:101D1C007DF8214A1468214691B9204C23681BB9DF
:101D2C00304600F063F820602946304600F05EF83B
:101D3C00431C24D10C233046336000F068F8E4E7F0
:101D4C000B685B1B18D40B2B0FD90B60CC18CD5028
:101D5C00304600F05CF804F10B00231D20F0070066
:101D6C00C31AD3D05A42E250D0E74B688C4216BF0C
:101D7C00636013600C46EBE70C464968CCE7C41C67
:101D8C0024F00304A04205D0211A304600F02EF8AE
:101D9C000130CFD02560DBE79400002098000020B4
:101DAC00F8B5074614460E4621B9BDE8F840114671
:101DBC00FFF79CBF22B9FFF74DFF25462846F8BD1B
:101DCC0000F026F8A0420FD221463846FFF78EFFCE
:101DDC0005460028F2D031462246FFF717FF314660
:101DEC003846FFF737FFE9E73546E7E738B5002314
:101DFC00054C054608462360FEF75AFC431C02D1ED
:101E0C00236803B12B6038BDA000002070477047D9
:101E1C0051F8043C181F002BBCBF0B58C01870475E
:101E2C00F8B500BFF8BC08BC9E467047F8B500BFBB
:081E3C00F8BC08BC9E4670478B
:101E44002564000070656F706C653D000203040535
:101E5400060708090A0B0C0D0E0F101001020000F2
:101E64000000000000000000010203040607080946
:101E7400232D302B2000686C4C006566674546476F
:101E840000303132333435363738394142434445F2
:101E94004600303132333435363738396162636461
:041EA400656600006F
:041EA80031010008FC
:041EAC000D0100081C
:101EB0000024F400100000000100000010000020C9
:101EC0000000000000000000000000000000000012
:101ED0000000000000000000000000000000000002
:101EE00000000000000000000000000000000000F2
:101EF00000000000000000000000000000000000E2
:101F000000000000000000000000000000000000D1
:101F100000000000000000000000000000000000C1
:0400000508000735B3
:00000001FF
