:020000040800F2
:1000000000900020E1060008990600089F060008FD
:1000100000000000000000000000000000000000E0
:10002000000000000000000000000000A50600081D
:100030000000000000000000AF060008B90600083C
:1000400031070008310700083107000831070008B0
:1000500031070008310700083107000831070008A0
:100060003107000831070008310700083107000890
:100070003107000831070008310700083107000880
:100080003107000831070008310700083107000870
:100090003107000831070008310700083107000860
:1000A0003107000831070008310700083107000850
:0C00B00031070008310700083107000884
:1000BC0010B5064C2378002B07D1054B002B02D032
:1000CC00044800E000BF0123237010BD0C00002089
:1000DC000000000048170008044B10B5002B03D09B
:1000EC000349044800E000BF10BDC04600000000FA
:1000FC001000002048170008002243088B4274D3DC
:10010C0003098B425FD3030A8B4244D3030B8B420C
:10011C0028D3030C8B420DD3FF22090212BA030C15
:10012C008B4202D31212090265D0030B8B4219D3F6
:10013C0000E0090AC30B8B4201D3CB03C01A524116
:10014C00830B8B4201D38B03C01A5241430B8B425E
:10015C0001D34B03C01A5241030B8B4201D30B0347
:10016C00C01A5241C30A8B4201D3CB02C01A52416E
:10017C00830A8B4201D38B02C01A5241430A8B4231
:10018C0001D34B02C01A5241030A8B4201D30B021A
:10019C00C01A5241CDD2C3098B4201D3CB01C01A34
:1001AC00524183098B4201D38B01C01A524143093E
:1001BC008B4201D34B01C01A524103098B4201D32C
:1001CC000B01C01A5241C3088B4201D3CB00C01A99
:1001DC00524183088B4201D38B00C01A5241430811
:1001EC008B4201D34B00C01A5241411A00D2014636
:1001FC00524110467047FFE701B5002000F006F8A9
:10020C0002BDC0460029F7D076E770477047C0465C
:10021C0080B500AF1E2000F00DFB80239B01214810
:10022C000022190000F056FD80235B011D480122BD
:10023C00190000F04FFD80231B011A480022190001
:10024C0000F048FD8023DB0016480022190000F066
:10025C0041FD80231B0213480022190000F03AFDD7
:10026C008023DB010F480122190000F033FD8023AD
:10027C00DB010C480022190000F02CFD2821002085
:10028C0000F012F80C21002000F00EF806210020DE
:10029C0000F00AF80121002000F006F8C046BD4627
:1002AC0080BDC0460004005080B582B000AF020093
:1002BC00FB1D1A70BB1D0A1C1A70022000F0BAFA42
:1002CC00FB1D1B78002B07D080231B0266480122E4
:1002DC00190000F0FFFC06E080231B02624800229C
:1002EC00190000F0F7FCBB1D1B785BB2002B07DA82
:1002FC008023DB005C480122190000F0EBFC06E0D7
:10030C008023DB0058480022190000F0E3FCBB1DE1
:10031C001B784022134007D080231B015248012236
:10032C00190000F0D7FC06E080231B014E48002288
:10033C00190000F0CFFCBB1D1B782022134007D006
:10034C0080235B0148480122190000F0C3FC06E041
:10035C0080235B0144480022190000F0BBFCBB1D4C
:10036C001B781022134007D080239B013E480122AA
:10037C00190000F0AFFC06E080239B013A480022F4
:10038C00190000F0A7FC8023DB013748012219007B
:10039C0000F0A0FC8023DB0133480022190000F0A0
:1003AC0099FCBB1D1B780822134007D08023DB006F
:1003BC002D480122190000F08DFC06E08023DB00A3
:1003CC0029480022190000F085FCBB1D1B78042273
:1003DC00134007D080231B0123480122190000F091
:1003EC0079FC06E080231B011F480022190000F055
:1003FC0071FCBB1D1B780222134007D080235B01CC
:10040C0019480122190000F065FC06E080235B010D
:10041C0015480022190000F05DFCBB1D1B78012261
:10042C00134007D080239B010F480122190000F0D4
:10043C0051FC06E080239B010B480022190000F0C0
:10044C0049FC8023DB0108480122190000F042FC22
:10045C008023DB0104480022190000F03BFCC0465D
:10046C00BD4602B080BDC0460004005080B582B0CD
:10047C0000AF3A60FB1D021C1A70BB1D0A1C1A70DF
:10048C00FB1D1B78012B11D002DC002B05D028E0C2
:10049C00022B14D0032B1BD023E0BB1D1B78803BFD
:1004AC00DBB219000020FFF7FFFE1AE0BB1D1B7822
:1004BC00403BDBB219000020FFF7F6FE11E0BB1D3C
:1004CC001B78703BDBB219000020FFF7EDFE08E053
:1004DC00BB1D1B78303BDBB219000020FFF7E4FE9C
:1004EC00C0460AE03B681B785BB2DBB21900012006
:1004FC00FFF7DAFE3B6801333B603B681B785BB26D
:10050C00002BEFD1C046BD4602B080BD80B500AF18
:10051C0000F00AF900F00EF800F054F8FFF778FE3E
:10052C00034B1A0000210020FFF7A0FFFEE7C04696
:10053C006017000890B593B000AF10243B19180059
:10054C0038231A00002101F0F1F83B0018001023A9
:10055C001A00002101F0EAF880239B00180000F03B
:10056C00D7FB3B1902221A603B1980225200DA6039
:10057C003B1900221A613B1940225A613B19002297
:10058C00DA613B19180000F003FC031E01D000F0E7
:10059C0051F83B0007221A603B0000225A603B00D6
:1005AC0000229A603B000022DA603B000021180018
:1005BC0000F00EFF031E01D000F03CF8C046BD4613
:1005CC0013B090BD80B586B000AF3B1D180014234E
:1005DC001A00002101F0AAF8144B5A6B134B02219C
:1005EC000A435A63114B5B6B022213403B603B681E
:1005FC00FC231B020E480022190000F06BFB3B1D74
:10060C00FC2212021A603B1D01225A603B1D002283
:10061C009A603B1D0022DA603B1D054A1900100050
:10062C0000F0F4F9C046BD4606B080BD0010024093
:10063C000004005080B500AF72B6FEE780B582B002
:10064C0000AF114B1A6C104B01210A431A640E4B6C
:10065C001B6C012213407B607B680B4BDA6B0A4BE3
:10066C00802149050A43DA63074BDA6B80235B056B
:10067C0013403B603B68C023DB00180000F0FCF823
:10068C00C046BD4602B080BD0010024080B500AF30
:10069C00FEE780B500AFFEE780B500AFC046BD46B3
:1006AC0080BD80B500AFC046BD4680BD80B500AFF3
:1006BC0000F0A4F8C046BD4680BD000080B500AF78
:1006CC00034B802212059A60C046BD4680BDC046D1
:1006DC0000ED00E00D488546FFF7F0FF0C480D4992
:1006EC000D4A002302E0D458C4500433C4188C4281
:1006FC00F9D30A4A0A4C002301E013600432A242E7
:10070C00FBD300F0EFFFFFF701FFFEE700900020A6
:10071C00000000200C000020B41700080C00002082
:10072C002C000020FEE7000080B582B000AFFB1D5E
:10073C0000221A700B4B1A680A4B802149000A439D
:10074C001A60002000F010F8031E03D0FB1D0122DC
:10075C001A7001E0FFF772FFFB1D1B781800BD46F5
:10076C0002B080BD0020024090B585B000AF78602B
:10077C000F23FB1800221A701D4B1B78002B2BD05B
:10078C001C4B1C681A4B1B781900FA239800FFF7B6
:10079C00B3FC030019002000FFF7AEFC03001800A7
:1007AC0000F027F9031E12D17B68032B0AD8796855
:1007BC0001235B420022180000F006F90E4B7A6808
:1007CC001A600DE00F23FB1801221A7008E00F23AA
:1007DC00FB1801221A7003E00F23FB1801221A7078
:1007EC000F23FB181B781800BD4605B090BDC04602
:1007FC0008000020000000200400002080B500AF9D
:10080C00054B1B781A00054B1B68D218034B1A605A
:10081C00C046BD4680BDC046080000202800002010
:10082C0080B500AF024B1B681800BD4680BDC046AA
:10083C002800002080B584B000AF7860FFF7F0FF8F
:10084C000300BB607B68FB60FB68013305D0094B80
:10085C001B781A00FB689B18FB60C046FFF7E0FF93
:10086C000200BB68D31AFA689A42F7D8C046BD4654
:10087C0004B080BD0800002080B582B000AF786065
:10088C00064B1B68064A13401900044B7A680A434E
:10089C001A60C046BD4602B080BDC0460000014093
:1008AC00FFF9FFFF90B583B000AF02003960FB1D6C
:1008BC001A70FB1D1B787F2B28D82F4AFB1D1B7829
:1008CC005BB29B08C0339B009B58FA1D1278110039
:1008DC0003220A40D200FF2191400A00D2431A4061
:1008EC0011003B689B01FF221A40FB1D1B7818006E
:1008FC0003230340DB009A401F48FB1D1B785BB2AF
:10090C009B080A43C0339B001A5031E01B4AFB1D65
:10091C001B7819000F230B40083B9B0806339B00E8
:10092C00D31804331B68FA1D1278110003220A40F5
:10093C00D200FF2191400A00D2431A4011003B68BB
:10094C009B01FF221A40FB1D1B7818000323034058
:10095C00DB009A400948FB1D1B781C000F23234029
:10096C00083B9B080A4306339B00C31804331A60E8
:10097C00C046BD4603B090BD00E100E000ED00E0D4
:10098C0080B582B000AF78607B68013B0C4A934223
:10099C0001D9012310E00B4B7A68013A5A6001230C
:1009AC005B4203211800FFF77DFF064B00229A6083
:1009BC00044B07221A6000231800BD4602B080BD0C
:1009CC00FFFFFF0010E000E080B584B000AFB9601D
:1009DC007A600F217B18021C1A70BA687B181B787E
:1009EC005BB211001800FFF75DFFC046BD4604B0B6
:1009FC0080BD80B582B000AF78607B681800FFF7CF
:100A0C00BFFF03001800BD4602B080BD80B586B0A4
:100A1C0000AF7860396000237B6147E13B681B685D
:100A2C0001217A6991400A001340FB60FB68002B9E
:100A3C0000D138E13B685B68012B0BD03B685B68ED
:100A4C00022B07D03B685B68112B03D03B685B68BB
:100A5C00122B30D17B689B683B617B695B00032266
:100A6C009A401300DA433B6913403B613B68DA68F8
:100A7C007B695B009A4013003A6913433B617B68C6
:100A8C003A699A607B685B683B6101227B699A409A
:100A9C001300DA433B6913403B613B685B681B09FD
:100AAC0001221A407B699A4013003A6913433B6157
:100ABC007B683A695A607B68DB683B617B695B00E9
:100ACC0003229A401300DA433B6913403B613B68B5
:100ADC009A687B695B009A4013003A6913433B6147
:100AEC007B683A69DA603B685B68022B03D03B6831
:100AFC005B68122B23D17B69DA087B680832920081
:100B0C00D3583B617B69072213409B000F229A400C
:100B1C001300DA433B6913403B613B681A697B69FC
:100B2C0007210B409B009A4013003A6913433B6129
:100B3C007B69DA087B68083292003969D1507B688E
:100B4C001B683B617B695B0003229A401300DA430C
:100B5C003B6913403B613B685B6803221A407B692D
:100B6C005B009A4013003A6913433B617B683A6916
:100B7C001A603B685A6880235B05134000D192E0F1
:100B8C00504A7B699B0818339B009B583B617B69DF
:100B9C0003221340DB000F229A401300DA433B6917
:100BAC0013403B617A68A023DB059A4213D07B6823
:100BBC00454A93420DD07B68444A934207D07B68E8
:100BCC00434A934201D1032306E0052304E00223A8
:100BDC0002E0012300E000237A6903210A40D200DD
:100BEC0093403A6913433B6136497B699B08183340
:100BFC009B003A695A50334A8023D3583B61FB68B7
:100C0C00DA433B6913403B613B685A6880235B02C3
:100C1C00134003D03A69FB6813433B612949802296
:100C2C003B698B50274A8423D3583B61FB68DA43DA
:100C3C003B6913403B613B685A6880239B0213401D
:100C4C0003D03A69FB6813433B611E4984223B691C
:100C5C008B501C4B1B683B61FB68DA433B691340B0
:100C6C003B613B685A6880235B03134003D03A69AD
:100C7C00FB6813433B61134B3A691A60114B5B6879
:100C8C003B61FB68DA433B6913403B613B685A6844
:100C9C0080239B03134003D03A69FB6813433B61E9
:100CAC00084B3A695A607B6901337B613B681A686F
:100CBC007B69DA40131E00D0B0E6C046BD4606B0D4
:100CCC0080BDC046001802400004005000080050CF
:100CDC00000C005080B582B000AF786008001100A5
:100CEC00BB1C021C1A807B1C0A1C1A707B1C1B78F8
:100CFC00002B04D0BB1C1A887B689A6103E0BB1CD8
:100D0C001A887B689A62C046BD4602B080BD00005E
:100D1C0080B584B000AF7860194B1B68194A13403A
:100D2C001900174B7A680A431A607A6880239B0073
:100D3C009A421FD1144B1A6813005B009B185B007E
:100D4C0012491800FFF7D8F903000133FB6008E0E3
:100D5C00FB68002B03D0FB68013BFB6001E0032325
:100D6C0009E0074B5A698023DB001A408023DB0023
:100D7C009A42EDD000231800BD4604B080BDC04699
:100D8C0000700040FFF9FFFF0000002040420F0000
:100D9C0080B588B000AF78607B68002B01D101234F
:100DAC0004E37B681B680122134000D17CE0C34B39
:100DBC009B6838221340BB61C04BDB680322134095
:100DCC007B61BB69102B02D17B69032B02D0BB6901
:100DDC00082B0BD1B94B1A6880239B02134062D0AD
:100DEC007B685B68002B5ED10123DFE27B685A686D
:100DFC0080235B029A4207D1B04B1A68AF4B80211B
:100E0C0049020A431A6020E07B685A68A023DB027F
:100E1C009A420ED1A94B1A68A84B8021C9020A43E9
:100E2C001A60A64B1A68A54B802149020A431A6026
:100E3C000BE0A24B1A68A14BA1490A401A609F4BC8
:100E4C001A689E4B9F490A401A607B685B68002BAE
:100E5C0014D0FFF7E5FC03003B6108E0FFF7E0FC72
:100E6C0002003B69D31A642B01D903239EE2934BF6
:100E7C001A6880239B021340F0D015E0FFF7D0FCDA
:100E8C0003003B6108E0FFF7CBFC02003B69D31A7F
:100E9C00642B01D9032389E2884B1A6880239B02B7
:100EAC001340F0D100E0C0467B681B68022213405F
:100EBC0000D199E0814B9B6838221340BB617F4B7A
:100ECC00DB68032213407B61BB69102B02D17B6969
:100EDC00022B02D0BB69002B35D1784B1A688023CA
:100EEC00DB00134005D07B68DB68002B01D10123AC
:100EFC005CE2724B5B68744A134019007B685B6957
:100F0C001A026E4B0A435A60BB69002B12D16B4B11
:100F1C001B686E4A134019007B681A69674B0A43B9
:100F2C001A60664B1B68DB0A07221340684ADA40DA
:100F3C00684B1A60684B1B681800FFF715FC031E02
:100F4C0051D0012332E27B68DB68002B30D05B4B45
:100F5C001B685E4A134019007B681A69574B0A4399
:100F6C001A60564B1A68554B802149000A431A6087
:100F7C00FFF756FC03003B6108E0FFF751FC020051
:100F8C003B69D31A022B01D903230FE24B4B1A688E
:100F9C008023DB001340F0D0484B5B684A4A134077
:100FAC0019007B685B691A02444B0A435A601BE0C8
:100FBC00424B1A68414B49490A401A60FFF730FC12
:100FCC0003003B6108E0FFF72BFC02003B69D31ADE
:100FDC00022B01D90323E9E1384B1A688023DB008B
:100FEC001340F0D100E0C0467B681B680822134018
:100FFC0047D0324B9B6838221340182B0AD12F4B09
:10100C001B6E022213403CD07B689B69002B38D1AD
:10101C000123CBE17B689B69002B19D0274B1A6EFF
:10102C00264B01210A431A66FFF7FAFB03003B61CA
:10103C0008E0FFF7F5FB02003B69D31A022B01D93C
:10104C000323B3E11D4B1B6E02221340F1D018E0B9
:10105C001A4B1A6E194B01218A431A66FFF7E0FBF3
:10106C0003003B6108E0FFF7DBFB02003B69D31A8E
:10107C00022B01D9032399E1104B1B6E0222134062
:10108C00F1D17B681B680422134000D1C6E01F23FA
:10109C00FB1800221A70094B9B6838221340202B36
:1010AC001ED1064BDB6D0222134000D1B6E07B68EB
:1010BC009B68002B00D0B1E0012377E100100240C7
:1010CC00FFFFFEFFFFFFFBFFFF80FFFFFFC7FFFFE0
:1010DC000024F4000000002004000020FFFEFFFFAD
:1010EC00B44BDA6B80235B05134001D1012300E084
:1010FC000023002B11D0AF4BDA6BAE4B802149058E
:10110C000A43DA63AB4BDA6B80235B051340FB605D
:10111C00FB681F23FB1801221A70A74B1A68802347
:10112C005B0013401AD1A44B1A68A34B80214900D1
:10113C000A431A60FFF774FB03003B6108E0FFF7FA
:10114C006FFB02003B69D31A022B01D903232DE15B
:10115C00994B1A6880235B001340F0D07B689B6826
:10116C00012B06D1934BDA6D924B01210A43DA65C0
:10117C001CE07B689B68052B0CD18E4BDA6D8D4B7C
:10118C0004210A43DA658B4BDA6D8A4B01210A4341
:10119C00DA650BE0874BDA6D864B01218A43DA6501
:1011AC00844BDA6D834B04218A43DA657B689B6838
:1011BC00002B14D0FFF734FB03003B6109E0FFF771
:1011CC002FFB02003B69D31A7C4A934201D90323BB
:1011DC00ECE0784BDB6D02221340F0D013E0FFF70C
:1011EC001FFB03003B6109E0FFF71AFB02003B69A0
:1011FC00D31A724A934201D90323D7E06D4BDB6DAE
:10120C0002221340F0D11F23FB181B78012B05D1B0
:10121C00684BDA6B674B6A490A40DA637B68DB69B7
:10122C00002B00D1C1E0634B9B6838221340102B7C
:10123C0000D181E07B68DB69022B56D15D4B1A68CB
:10124C005C4B60490A401A60FFF7EAFA03003B6105
:10125C0008E0FFF7E5FA02003B69D31A022B01D92B
:10126C000323A3E0534B1A6880239B041340F0D153
:10127C00504BDB68544A134019007B681A6A7B6830
:10128C005B6A1A437B689B6A1B021A437B68DB6AA6
:10129C001A437B681B6B1A437B685B6B1A43454B89
:1012AC000A43DA60434B1A68424B802149040A43D3
:1012BC001A60404BDA683F4B802149050A43DA60DB
:1012CC00FFF7AEFA03003B6108E0FFF7A9FA020052
:1012DC003B69D31A022B01D9032367E0354B1A68FB
:1012EC0080239B041340F0D05FE0324B1A68314BE3
:1012FC0034490A401A602F4BDA682E4B03218A437B
:10130C00DA602C4BDA682B4B30490A40DA60FFF775
:10131C0087FA03003B6108E0FFF782FA02003B69A1
:10132C00D31A022B01D9032340E0224B1A688023E5
:10133C009B041340F0D138E07B68DB69012B01D1B1
:10134C00012333E01B4BDB687B617B6903221A4072
:10135C007B681B6A9A4226D17B6970221A407B6893
:10136C005B6A9A421FD17A69FE23DB011A407B68C3
:10137C009B6A1B029A4216D17A69F8239B031A4086
:10138C007B68DB6A9A420ED17A69E0231B051A400E
:10139C007B681B6B9A4206D17B695B0F5A077B6893
:1013AC005B6B9A4201D0012300E000231800BD467C
:1013BC0008B080BD0010024000700040881300008F
:1013CC00FFFFFFEFFFFFFFFE8C80C111FFFFFEEE62
:1013DC0080B584B000AF786039607B68002B01D198
:1013EC000123E9E0764B1B68072213403A689A42C6
:1013FC001ED9734B1B68072293431900704B3A6834
:10140C000A431A60FFF70CFA0300FB6009E0FFF7D0
:10141C0007FA0200FB68D31A6A4A934201D90323E4
:10142C00CAE0674B1B68072213403A689A42EED118
:10143C007B681B680222134015D07B681B68042252
:10144C00134006D0604B9A685F4BE021C9010A43F8
:10145C009A605D4B9B685D4A134019007B689A68E3
:10146C00594B0A439A607B681B680122134057D082
:10147C007B685B68012B07D1534B1A6880239B0256
:10148C0013402BD1012397E07B685B68022B07D1BB
:10149C004D4B1A6880239B0413401FD101238BE012
:1014AC007B685B68002B07D1474B1A688023DB00F5
:1014BC00134013D101237FE07B685B68032B06D1BB
:1014CC00414B1B6E0222134008D1012374E03E4BAA
:1014DC00DB6D0222134001D101236DE03A4B9B6876
:1014EC000722934319007B685A68374B0A439A606A
:1014FC00FFF796F90300FB6009E0FFF791F9020092
:10150C00FB68D31A2F4A934201D9032354E02E4B84
:10151C009B6838221A407B685B68DB009A42ECD1EE
:10152C00274B1B68072213403A689A421ED2244B61
:10153C001B68072293431900214B3A680A431A602F
:10154C00FFF76EF90300FB6009E0FFF769F9020091
:10155C00FB68D31A1B4A934201D903232CE0184B86
:10156C001B68072213403A689A42EED17B681B68CD
:10157C000422134009D0144B9B68154A13401900E0
:10158C007B68DA68104B0A439A6000F029F8010076
:10159C000D4B9B681B0A0F221A400E4B9200D3581E
:1015AC001F2213400A00DA400B4B1A600B4B1B68CE
:1015BC001800FFF7D9F803001800BD4604B080BD31
:1015CC00002002408813000000100240FFF0FFFFD3
:1015DC00FF8FFFFF6C1700080000002004000020A4
:1015EC0080B586B000AF3C4B9B68382213400FD1BE
:1015FC00394B1B68DB0A0722134001229A40130067
:10160C003B6039683548FEF777FD03003B615DE0D0
:10161C00314B9B6838221340082B02D1304B3B6175
:10162C0054E02D4B9B6838221340102B38D12A4B99
:10163C00DB6803221340FB60274BDB681B09072286
:10164C0013400133BB60FB68032B0DD1B9682448F0
:10165C00FEF752FD030019001F4BDB681B0A7F22AB
:10166C0013404B437B610DE0B9681C48FEF744FD09
:10167C0003001900184BDB681B0A7F2213404B43F5
:10168C007B61C046144BDB685B0F072213400133B0
:10169C007B6079687869FEF72FFD03003B6115E0EC
:1016AC000D4B9B6838221340202B03D180231B0247
:1016BC003B610BE0084B9B6838221340182B03D17D
:1016CC00FA23DB013B6101E000233B613B6918001D
:1016DC00BD4606B080BDC046001002400024F40098
:1016EC0000127A0070B500260C4D0D4C641BA41032
:1016FC00A64209D1002600F021F80A4D0A4C641BC1
:10170C00A410A64205D170BDB300EB589847013622
:10171C00EEE7B300EB5898470136F2E7AC17000838
:10172C00AC170008AC170008B0170008030012181B
:10173C00934200D1704719700133F9E7F8B5C046F0
:10174C00F8BC08BC9E467047F8B5C046F8BC08BC4F
:04175C009E467047EE
:1017600048656C6C6F2053544D333200000000000C
:101770000000000000000000000000000000000069
:101780000000000000000000000000000100000058
:10179000020000000300000004000000060000003A
:0C17A00007000000080000000900000025
:0417AC00E50000084C
:0417B000BD00000870
:0C17B4000024F40004000000010000000C
:04000005080006E108
:00000001FF
