:020000040800F2
:10000000001800206109000871080008770800083E
:100010007D08000883080008890800080000000027
:100020000000000000000000000000008F08000831
:100030009B08000800000000A7080008B30800089B
:10004000A9090008A9090008A9090008C1080008B1
:10005000A9090008A9090008A9090008A9090008B8
:10006000A9090008A9090008A9090008A9090008A8
:10007000A9090008A9090008A9090008A909000898
:10008000A9090008A9090008A9090008A909000888
:10009000A9090008A9090008A9090008A909000878
:1000A000A9090008A9090008A9090008A909000868
:1000B000A9090008A909000800000000A909000812
:1000C000A90900080000000000000000A9090008BC
:1000D00000000000A9090008A909000800000000AC
:1000E000A9090008D5080008A909000800000000B7
:1000F0000000000000000000000000000000000000
:0C01000000000000000000005FF808F1A3
:10010C0010B5054C237833B9044B13B10448AFF345
:10011C0000800123237010BD70000020000000003F
:10012C006031000808B5034B1BB103490348AFF31A
:10013C00008008BD00000000740000206031000841
:10014C0080B500AF1E2000F08DFC00224FF4005152
:10015C001C4800F009FF01224FF48051194800F0AF
:10016C0003FF00224FF40061164800F0FDFE002250
:10017C004FF48061134800F0F7FE00224FF4004169
:10018C00104800F0F1FE01224FF480410D4800F0C0
:10019C00EBFE00224FF480410A4800F0E5FE2821D6
:1001AC00002000F011F80C21002000F00DF80621C1
:1001BC00002000F009F80121002000F005F800BF34
:1001CC0080BD00BF000C014080B582B000AF03467B
:1001DC000A46FB711346BB71022000F043FCFB790D
:1001EC00002B06D001224FF400415A4800F0BCFE0F
:1001FC0005E000224FF40041564800F0B5FE97F997
:10020C000630002B06DA01224FF48061514800F0D1
:10021C00ABFE05E000224FF480614E4800F0A4FED6
:10022C00BB7903F04003002B06D001224FF4006190
:10023C00484800F099FE05E000224FF40061454863
:10024C0000F092FEBB7903F02003002B06D00122B4
:10025C004FF480513F4800F087FE05E000224FF438
:10026C0080513C4800F080FEBB7903F01003002B5A
:10027C0006D001224FF40051364800F075FE05E01F
:10028C0000224FF40051334800F06EFE01224FF46F
:10029C008041304800F068FE00224FF480412D4828
:1002AC0000F062FEBB7903F00803002B06D001229C
:1002BC004FF48061274800F057FE05E000224FF410
:1002CC008061244800F050FEBB7903F00403002B3E
:1002DC0006D001224FF400611E4800F045FE05E0F7
:1002EC0000224FF400611B4800F03EFEBB7903F086
:1002FC000203002B06D001224FF48051154800F068
:10030C0033FE05E000224FF48051124800F02CFE21
:10031C00BB7903F00103002B06D001224FF40051EE
:10032C000C4800F021FE05E000224FF40051094872
:10033C0000F01AFE01224FF48041064800F014FE32
:10034C0000224FF48041034800F00EFE00BF083736
:10035C00BD4680BD000C014080B582B000AF0346A5
:10036C003A60FB710B46BB71FB79032B36D801A2AB
:10037C0052F823F091030008A1030008B103000810
:10038C00C1030008BB79803BDBB219460020FFF7A4
:10039C001BFF17E0BB79403BDBB219460020FFF78F
:1003AC0013FF0FE0BB79703BDBB219460020FFF75F
:1003BC000BFF07E0BB79303BDBB219460020FFF79F
:1003CC0003FF00BF0AE03B6893F90030DBB219462B
:1003DC000120FFF7F9FE3B6801333B603B6893F962
:1003EC000030002BEFD100BF0837BD4680BD00BFE9
:1003FC0080B500AF01210020FFF7E6FE00BF80BDF5
:10040C0080B582B000AF3B1D00210A461A800A4617
:10041C009A7000233B6005233B7100237B71002302
:10042C00BB713B1D00221946114801F0D1FB03465C
:10043C00002B01D000F0ACF90C237B700823BB70AF
:10044C001623FB703B4600221946094801F030FD8B
:10045C000346002B01D000F09BF943F2F22201215C
:10046C00034802F0FDF900BF0837BD4680BD00BF50
:10047C009C00002080B584B002AF3B460022194698
:10048C00124801F03DFC3B1D002219460F4801F0BB
:10049C00C5FD3B781A467B781946BB7800930B4612
:1004AC000B490C4802F044FABB791A467B79194681
:1004BC00FB7903F5FA6300930B460749074802F0F2
:1004CC0037FA00BF0837BD4680BD00BF9C00002036
:1004DC0078310008B000002088310008BC000020F2
:1004EC0080B500AF054A00210020FFF735FF044A14
:1004FC0000210120FFF730FF00BF80BDB0000020BD
:10050C00BC00002080B582B000AF05233B700023F7
:10051C007B700523BB7000237B603B460022194691
:10052C00054801F0CFFD0346002B01D000F030F957
:10053C0000BF0837BD4680BD9C00002080B483B04E
:10054C0000AF7860034B01221A7000BF0C37BD4618
:10055C0080BC70478C00002080B500AF01222021A8
:10056C00084800F001FDFFF743FF074A0021002077
:10057C00FFF7F2FE642000F075FAFFF739FF00BFB9
:10058C0080BD00BF000801409831000880B500AF65
:10059C0000F006FA00F02AF800F0A6F800F07EF859
:1005AC00FFF7CEFDFFF724FF01210E4802F072F990
:1005BC00024643F2F2239A4201D0FFF721FFFFF7E4
:1005CC00A1FFFFF757FFFFF78BFFC82000F04AFA97
:1005DC00054B1B78002BF4D0FFF7BEFF024B00221B
:1005EC001A70EEE79C0000208C00002080B594B0BF
:1005FC0000AF07F1280328220021184602F090F9D9
:10060C0007F1140300221A605A609A60DA601A61CA
:10061C003B1D00221A605A609A60DA600A23BB62A2
:10062C000123BB631023FB6301233B6402237B6424
:10063C000023BB644FF40023FB6407F12803184626
:10064C0000F0B6FC0346002B01D000F0A1F80F23FC
:10065C007B610223BB610023FB6100233B6200230F
:10066C007B6207F114030021184600F021FF0346BA
:10067C00002B01D000F08CF801237B604FF4007349
:10068C00BB603B1D184601F09BF80346002B01D0C4
:10069C0000F07EF800BF5037BD4680BD80B582B0FB
:1006AC0000AF3B1D00210A461A800A469A700023AF
:1006BC003B600B4B0B4A1A60094B4FF0FF325A60F0
:1006CC00074B4FF480729A60054801F0EBF9034632
:1006DC00002B01D000F05CF800BF0837BD4680BD90
:1006EC009C0000200028004080B586B000AF07F1C8
:1006FC00080300221A605A609A60DA60214B9B69E9
:10070C00204A43F0040393611E4B9B6903F00403DE
:10071C007B607B681B4B9B691A4A43F0080393610F
:10072C00184B9B6903F008033B603B6800222021B7
:10073C00154800F019FC00224FF47C41134800F0DE
:10074C0013FC2023BB600123FB6000233B610223CD
:10075C007B6107F1080319460B4800F0B3FA4FF41C
:10076C007C43BB600123FB6000233B6102237B6164
:10077C0007F108031946054800F0A4FA00BF183722
:10078C00BD4680BD0010024000080140000C014035
:10079C0080B400AF72B6FEE780B485B000AF154BE5
:1007AC009B69144A43F001039361124B9B6903F05C
:1007BC000103BB60BB680F4BDB690E4A43F08053EF
:1007CC00D3610C4BDB6903F080537B607B680A4B75
:1007DC005B68FB60FB6823F0E063FB60FB6843F045
:1007EC008063FB60044AFB68536000BF1437BD464E
:1007FC0080BC7047001002400000014080B584B0FE
:10080C0000AF78607B681B68134A934220D100F0DC
:10081C00C3FB124BDB69114A43F00063D3610F4BEE
:10082C00DB6903F00063FB60FB680D4B01221A606F
:10083C0000220021032000F00EFA032000F027FA1A
:10084C0000220021292000F006FA292000F01FFACE
:10085C0000BF1037BD4680BD00280040001002408C
:10086C003C04424280B400AFFEE780B400AFFEE728
:10087C0080B400AFFEE780B400AFFEE780B400AFF9
:10088C00FEE780B400AF00BFBD4680BC704780B4AB
:10089C0000AF00BFBD4680BC704780B400AF00BF46
:1008AC00BD4680BC704780B500AF00F0BFF800BFFC
:1008BC0080BD000080B500AF024801F087FF00BF8B
:1008CC0080BD00BF9C00002080B500AF024801F045
:1008DC00B1FC00BF80BD00BF9C00002080B586B07D
:1008EC0000AF7860144A154BD31A7B617B693B616E
:1008FC00134B1B68002B02D1114B124A1A60104B80
:10090C001A687B6813443A699A4207D201F0DEFFF9
:10091C0002460C2313604FF0FF3309E0084B1B68B1
:10092C00FB60074B1A687B681344054A1360FB682D
:10093C0018461837BD4680BD001800200004000082
:10094C0090000020D000002080B400AF00BFBD4656
:10095C0080BC70470C480D490D4A002302E0D45866
:10096C00C4500433C4188C42F9D30A4A0A4C0023ED
:10097C0001E013600432A242FBD3FFF7E5FF01F064
:10098C00ABFFFFF703FE7047000000207000002053
:10099C002032000870000020D0000020FEE700008C
:1009AC0080B500AF084B1B68074A43F01003136077
:1009BC00032000F045F9002000F008F8FFF7ECFEEA
:1009CC000023184680BD00BF0020024080B582B0D5
:1009DC0000AF7860124B1A68124B1B7819464FF413
:1009EC007A73B3FBF1F3B2FBF3F3184600F05DF945
:1009FC000346002B01D001230EE07B680F2B0AD895
:100A0C00002279684FF0FF3000F025F9064A7B6828
:100A1C001360002300E0012318460837BD4680BD53
:100A2C0000000020080000200400002080B400AF6B
:100A3C00054B1B781A46054B1B681344034A13607D
:100A4C0000BFBD4680BC704708000020C8000020D5
:100A5C0080B400AF024B1B681846BD4680BC704783
:100A6C00C800002080B584B000AF7860FFF7F0FFBD
:100A7C00B8607B68FB60FB68B3F1FF3F05D0094BA6
:100A8C001B781A46FB681344FB6000BFFFF7E0FFBE
:100A9C000246BB68D31AFA689A42F7D800BF1037DF
:100AAC00BD4680BD0800002080B485B000AF7860E2
:100ABC007B6803F00703FB600C4BDB68BB60BA6818
:100ACC004FF6FF031340BB60FB681A02BB6813436D
:100ADC0043F0BF6343F40033BB60044ABB68D3608C
:100AEC0000BF1437BD4680BC704700BF00ED00E06E
:100AFC0080B400AF044BDB681B0A03F007031846F5
:100B0C00BD4680BC704700BF00ED00E080B483B0F0
:100B1C0000AF0346FB7197F90730002B0BDBFB7919
:100B2C0003F01F02064997F907305B09012000FA10
:100B3C0002F241F8232000BF0C37BD4680BC704741
:100B4C0000E100E080B483B000AF03463960FB7174
:100B5C0097F90730002B0ADB3B68DAB20C4997F99E
:100B6C0007301201D2B20B4483F800230AE03B6831
:100B7C00DAB20849FB7903F00F03043B1201D2B23D
:100B8C000B441A7600BF0C37BD4680BC704700BFC3
:100B9C0000E100E000ED00E080B489B000AFF86047
:100BAC00B9607A60FB6803F00703FB61FB69C3F172
:100BBC000703042B28BF0423BB61FB690433062BFA
:100BCC0002D9FB69033B00E000237B614FF0FF324D
:100BDC00BB6902FA03F3DA43BB681A407B699A409B
:100BEC004FF0FF317B6901FA03F3D9437B680B406B
:100BFC00134318462437BD4680BC704780B582B07D
:100C0C0000AF78607B68013BB3F1807F01D3012397
:100C1C000FE00A4A7B68013B53600F214FF0FF3015
:100C2C00FFF790FF054B00229A60044B07221A60D5
:100C3C00002318460837BD4680BD00BF10E000E019
:100C4C0080B582B000AF78607868FFF72DFF00BFE9
:100C5C000837BD4680BD80B586B000AF0346B9608D
:100C6C007A60FB7300237B61FFF742FF78617A683F
:100C7C00B9687869FFF790FF024697F90F30114673
:100C8C001846FFF75FFF00BF1837BD4680BD80B523
:100C9C0082B000AF0346FB7197F907301846FFF797
:100CAC0035FF00BF0837BD4680BD80B582B000AFB0
:100CBC0078607868FFF7A2FF034618460837BD46F0
:100CCC0080BD000080B48BB000AF78603960002329
:100CDC007B6200233B6221E101227B6A02FA03F36F
:100CEC00FB613B681B68FA691340BB61BA69FB691D
:100CFC009A4240F010813B685B68122B34D0122B67
:100D0C000DD8022B2BD0022B04D8002B31D0012B69
:100D1C001CD048E0032B43D0112B1BD043E0864A58
:100D2C00934226D0844A934206D8844A934220D0D8
:100D3C00834A93421DD036E0824A934219D0824AAC
:100D4C00934216D0814A934213D02CE03B68DB6867
:100D5C003B6228E03B68DB6804333B6223E03B6882
:100D6C00DB6808333B621EE03B68DB680C333B629C
:100D7C0019E03B689B68002B02D104233B6212E014
:100D8C003B689B68012B05D108233B627B68FA69A1
:100D9C001A6108E008233B627B68FA695A6102E039
:100DAC0000233B6200BFBB69FF2B01D87B6801E0CD
:100DBC007B6804337B61BB69FF2B02D87B6A9B0089
:100DCC0002E07B6A083B9B003B617B691A680F2140
:100DDC003B6901FA03F3DB431A40396A3B6901FAB8
:100DEC0003F31A437B691A603B685B6803F080531A
:100DFC00002B00F09080564B9B69554A43F0010341
:100E0C009361534B9B6903F00103BB60BB68514A70
:100E1C007B6A9B08023352F82330FB607B6A03F039
:100E2C0003039B000F2202FA03F3DB43FA6813401F
:100E3C00FB607B68484A93420DD07B68474A9342DB
:100E4C0007D07B68464A934201D1022304E0032376
:100E5C0002E0012300E000237A6A02F00302920010
:100E6C009340FA681343FB603A497B6A9B08023350
:100E7C00FA6841F823203B685B6803F48033002B4D
:100E8C0006D0384B1A683749BB6913430B6006E030
:100E9C00344B1A68BB69DB43324913400B603B6827
:100EAC005B6803F40033002B06D02E4B5A682D4997
:100EBC00BB6913434B6006E02A4B5A68BB69DB43A2
:100ECC00284913404B603B685B6803F48013002B8C
:100EDC0006D0244B9A682349BB6913438B6006E008
:100EEC00204B9A68BB69DB431E4913408B603B68FF
:100EFC005B6803F40013002B06D01A4BDA6819490F
:100F0C00BB691343CB6006E0164BDA68BB69DB4365
:100F1C0014491340CB607B6A01337B623B681A68CF
:100F2C007B6A22FA03F3002B7FF4D6AE00BF2C377A
:100F3C00BD4680BC704700BF00002110000011109E
:100F4C0000001210000031100000321000002210BE
:100F5C00001002400000014000080140000C01405C
:100F6C00001001400004014080B483B000AF7860F1
:100F7C000B467B8013467B707B78002B03D07A88E2
:100F8C007B681A6103E07B881A047B681A6100BFD6
:100F9C000C37BD4680BC704780B400AF034B0122B8
:100FAC001A6000BFBD4680BC704700BF20000E42D7
:100FBC0080B586B000AF78607B68002B01D101232F
:100FCC006CE27B681B6803F00103002B00F0878048
:100FDC00924B5B6803F00C03042B0CD08F4B5B68BB
:100FEC0003F00C03082B12D18C4B5B6803F4803399
:100FFC00B3F5803F0BD1894B1B6803F40033002BF6
:10100C006CD07B685B68002B68D1012346E27B685F
:10101C005B68B3F5803F06D1804B1B687F4A43F475
:10102C00803313602EE07B685B68002B0CD17B4B0C
:10103C001B687A4A23F480331360784B1B68774A19
:10104C0023F4802313601DE07B685B68B3F5A02F4D
:10105C000CD1724B1B68714A43F4802313606F4BA5
:10106C001B686E4A43F4803313600BE06B4B1B68B8
:10107C006A4A23F480331360684B1B68674A23F475
:10108C00802313607B685B68002B13D0FFF7E0FCB8
:10109C00386108E0FFF7DCFC02463B69D31A642B8D
:1010AC0001D90323FAE15D4B1B6803F40033002BD9
:1010BC00F0D014E0FFF7CCFC386108E0FFF7C8FC77
:1010CC0002463B69D31A642B01D90323E6E1534B47
:1010DC001B6803F40033002BF0D100E000BF7B68E9
:1010EC001B6803F00203002B63D04C4B5B6803F0CE
:1010FC000C03002B0BD0494B5B6803F00C03082B43
:10110C001CD1464B5B6803F48033002B16D1434B48
:10111C001B6803F00203002B05D07B681B69012BB5
:10112C0001D00123BAE13D4B1B6823F0F8027B6828
:10113C005B69DB00394913430B603AE07B681B6940
:10114C00002B20D0364B01221A60FFF781FC38614E
:10115C0008E0FFF77DFC02463B69D31A022B01D94C
:10116C0003239BE12D4B1B6803F00203002BF0D0F3
:10117C002A4B1B6823F0F8027B685B69DB0027496C
:10118C0013430B6015E0264B00221A60FFF760FC3E
:10119C00386108E0FFF75CFC02463B69D31A022B6E
:1011AC0001D903237AE11D4B1B6803F00203002BCA
:1011BC00F0D17B681B6803F00803002B3AD07B68E6
:1011CC009B69002B19D0174B01221A60FFF740FCCA
:1011DC00386108E0FFF73CFC02463B69D31A022B4E
:1011EC0001D903235AE10D4B5B6A03F00203002B78
:1011FC00F0D0012000F0C6FA1CE00A4B00221A6065
:10120C00FFF726FC38610FE0FFF722FC02463B6932
:10121C00D31A022B08D9032340E100BF001002406F
:10122C0000004242800442429E4B5B6A03F0020380
:10123C00002BE9D17B681B6803F00403002B00F042
:10124C00A6800023FB75974BDB6903F08053002BC2
:10125C000DD1944BDB69934A43F08053D361914B8E
:10126C00DB6903F08053BB60BB680123FB758E4BBD
:10127C001B6803F48073002B18D18B4B1B688A4AB4
:10128C0043F480731360FFF7E3FB386108E0FFF76A
:10129C00DFFB02463B69D31A642B01D90323FDE023
:1012AC00814B1B6803F48073002BF0D07B68DB68E8
:1012BC00012B06D17B4B1B6A7A4A43F00103136264
:1012CC002DE07B68DB68002B0CD1764B1B6A754AD2
:1012DC0023F001031362734B1B6A724A23F004035D
:1012EC0013621CE07B68DB68052B0CD16D4B1B6A11
:1012FC006C4A43F0040313626A4B1B6A694A43F05D
:10130C00010313620BE0674B1B6A664A23F001036F
:10131C001362644B1B6A634A23F0040313627B68F9
:10132C00DB68002B15D0FFF793FB38610AE0FFF761
:10133C008FFB02463B69D31A41F28832934201D9A2
:10134C000323ABE0574B1B6A03F00203002BEED0D8
:10135C0014E0FFF77DFB38610AE0FFF779FB0246EA
:10136C003B69D31A41F28832934201D9032395E0A9
:10137C004C4B1B6A03F00203002BEED1FB7D012BBF
:10138C0005D1484BDB69474A23F08053D3617B6816
:10139C00DB69002B00F08180424B5B6803F00C038F
:1013AC00082B61D07B68DB69022B46D13F4B0022B6
:1013BC001A60FFF74DFB386108E0FFF749FB024666
:1013CC003B69D31A022B01D9032367E0354B1B6809
:1013DC0003F00073002BF0D17B681B6AB3F5803FE0
:1013EC0008D1304B5B6823F400327B689B682D4935
:1013FC0013434B602B4B5B6823F474127B68196AA4
:10140C007B685B6A0B43274913434B60274B0122D4
:10141C001A60FFF71DFB386108E0FFF719FB024665
:10142C003B69D31A022B01D9032337E01D4B1B68F0
:10143C0003F00073002BF0D02FE01C4B00221A603D
:10144C00FFF706FB386108E0FFF702FB02463B6939
:10145C00D31A022B01D9032320E0124B1B6803F093
:10146C000073002BF0D118E07B68DB69012B01D1F4
:10147C00012313E00B4B5B68FB60FB6803F48032C9
:10148C007B681B6A9A4206D1FB6803F470127B6876
:10149C005B6A9A4201D0012300E0002318461837FA
:1014AC00BD4680BD0010024000700040600042420A
:1014BC0080B584B000AF786039607B68002B01D1B7
:1014CC000123D0E06A4B1B6803F007033A689A4289
:1014DC0010D9674B1B6823F0070265493B6813431F
:1014EC000B60634B1B6803F007033A689A4201D008
:1014FC000123B8E07B681B6803F00203002B20D0AB
:10150C007B681B6803F00403002B05D0594B5B6808
:10151C00584A43F4E06353607B681B6803F008038C
:10152C00002B05D0534B5B68524A43F46053536015
:10153C00504B5B6823F0F0027B689B684D4913436A
:10154C004B607B681B6803F00103002B40D07B6869
:10155C005B68012B07D1474B1B6803F40033002B4E
:10156C0015D101237FE07B685B68022B07D1414BCF
:10157C001B6803F00073002B09D1012373E03D4B72
:10158C001B6803F00203002B01D101236BE0394BE4
:10159C005B6823F003027B685B68364913434B603E
:1015AC00FFF756FAF8600AE0FFF752FA0246FB68BA
:1015BC00D31A41F28832934201D9032353E02D4BC5
:1015CC005B6803F00C027B685B689B009A42EBD172
:1015DC00274B1B6803F007033A689A4210D2244B3E
:1015EC001B6823F0070222493B6813430B60204B16
:1015FC001B6803F007033A689A4201D0012332E0DA
:10160C007B681B6803F00403002B08D0194B5B6844
:10161C0023F4E0627B68DB68164913434B607B68FC
:10162C001B6803F00803002B09D0124B5B6823F4F2
:10163C0060527B681B69DB000E4913434B6000F062
:10164C0021F801460B4B5B681B0903F00F030A4A98
:10165C00D35C21FA03F3094A1360094B1B68184643
:10166C00FFF7B4F9002318461037BD4680BD00BF04
:10167C000020024000100240CC3100080000002085
:10168C000400002090B48AB000AF2A4B3C1D0FCB55
:10169C0084E80F00284B1B883B800023FB61002350
:1016AC00BB6100237B6200237B6100233B62234BE5
:1016BC005B68FB61FB6903F00C03042B02D0082B65
:1016CC0003D02DE01E4B3B622DE0FB699B0C03F01D
:1016DC000F0307F12802134413F8243C7B61FB69C8
:1016EC0003F48033002B13D0144B5B685B0C03F0BA
:1016FC00010307F12802134413F8283CBB617B69F2
:10170C000F4A02FB03F2BB69B2FBF3F37B6204E00A
:10171C007B690C4A02FB03F37B627B6A3B6202E04F
:10172C00074B3B6200BF3B6A18462837BD4690BC4E
:10173C00704700BFA4310008B4310008001002400B
:10174C0000127A0000093D0080B400AF024B1B6808
:10175C001846BD4680BC70470000002080B500AF25
:10176C00FFF7F2FF0146054B5B68DB0A03F007034A
:10177C00034AD35C21FA03F3184680BD00100240E3
:10178C00DC31000880B485B000AF78600A4B1B6870
:10179C000A4AA2FB03235B0A7A6802FB03F3FB6091
:1017AC0000BFFB685A1EFA60002BF9D100BF14373A
:1017BC00BD4680BC704700BF00000020D34D6210B6
:1017CC0080B586B000AF786000233B610023FB60DE
:1017DC007B681B6803F00103002B7DD00023FB7595
:1017EC004F4BDB6903F08053002B0DD14C4BDB6965
:1017FC004B4A43F08053D361494BDB6903F0805370
:10180C00BB60BB680123FB75464B1B6803F48073FC
:10181C00002B18D1434B1B68424A43F4807313606E
:10182C00FFF716F9386108E0FFF712F902463B6939
:10183C00D31A642B01D903236DE03A4B1B6803F4D4
:10184C008073002BF0D0364B1B6A03F44073FB60A3
:10185C00FB68002B2ED07B685B6803F44073FA683E
:10186C009A4227D02E4B1B6A23F44073FB602E4BFD
:10187C0001221A602C4B00221A60294AFB68136261
:10188C00FB6803F00103002B14D0FFF7E1F838617B
:10189C000AE0FFF7DDF802463B69D31A41F28832C1
:1018AC00934201D9032336E01D4B1B6A03F002035C
:1018BC00002BEED01A4B1B6A23F440727B685B68DA
:1018CC00174913430B62FB7D012B05D1144BDB69CC
:1018DC00134A23F08053D3617B681B6803F0020327
:1018EC00002B08D00E4B5B6823F440427B689B684E
:1018FC000B4913434B607B681B6803F01003002BF0
:10190C0008D0074B5B6823F480027B68DB680449D2
:10191C0013434B60002318461837BD4680BD00BFEB
:10192C0000100240007000404004424290B58DB05F
:10193C0000AF7860554B07F10C040FCB84E80F0017
:10194C00534B1B883B8100237B620023FB620023EB
:10195C003B620023FB610023BB627B68022B7FD0C0
:10196C00102B02D0012B48D08BE04A4B5B68FB61FB
:10197C00484B1B6803F08073002B7FD0FB699B0CDA
:10198C0003F00F0307F13002134413F8243C3B62BD
:10199C00FB6903F48033002B18D03E4B5B685B0C67
:1019AC0003F0010307F13002134413F8283C7B6267
:1019BC00FB6903F48033002B0DD0374A7B6AB2FBF2
:1019CC00F3F23B6A02FB03F3FB6204E03B6A334A2B
:1019DC0002FB03F3FB622F4B5B6803F48003B3F54C
:1019EC00800F02D1FB6ABB6248E0FB6A5B002C4AA9
:1019FC00A2FB03235B08BB6240E0264B1B6AFB6126
:101A0C00FB6903F44073B3F5807F08D1FB6903F0E5
:101A1C000203002B03D04FF40043BB621FE0FB69B1
:101A2C0003F44073B3F5007F09D11A4B5B6A03F0E2
:101A3C000203002B03D049F64043BB620FE0FB6965
:101A4C0003F44073B3F5407F1AD1124B1B6803F4B7
:101A5C000033002B14D04FF22443BB6210E00FE094
:101A6C00FFF77CFE02460B4B5B689B0B03F00303FA
:101A7C0001335B00B2FBF3F3BB6202E000BF00E09A
:101A8C0000BFBB6A18463437BD4690BDB83100085C
:101A9C00C83100080010024000127A0000093D0015
:101AAC00ABAAAAAA80B584B000AF78600023FB6013
:101ABC007B68002B01D1012384E07B685B7CDBB26B
:101ACC00002B05D17B6800221A747868FEF796FE0D
:101ADC007B6802225A74786800F0D6FB0346002B10
:101AEC0004D07B6804225A7401236BE0786800F000
:101AFC008FFC0346002B04D07B6804225A7401230C
:101B0C0060E07B681B685A687B681B6822F00702E0
:101B1C005A607B689B68002B05D02C4B1B6B2B4AA7
:101B2C0023F001031363294BDB6A23F460727B6897
:101B3C009B6826491343CB627B685B68B3F1FF3F1C
:101B4C0003D07B685B68FB600EE00120FFF7EEFEC4
:101B5C00F860FB68002B04D17B6804225A740123C3
:101B6C0030E0FB68013BFB607B681B689B6823F0E3
:101B7C000F01FB681A0C7B681B680A439A607B6830
:101B8C001B68DB681B0C1B04FA6891B27A6812683C
:101B9C000B43D360786800F063FC0346002B04D041
:101BAC007B6804225A7401230CE07B680022DA73F0
:101BBC007B6801225A737B6801229A737B6801222D
:101BCC005A74002318461037BD4680BD006C004087
:101BDC0090B587B000AFF860B9607A6000237B6184
:101BEC0000233B61FB68002B02D0BB68002B01D1AA
:101BFC00012380E0FB681B7C012B01D102237AE0DE
:101C0C00FB6801221A74FB6802225A747B68002B51
:101C1C0013D1BB681B781A464FF4616303FB02F2C5
:101C2C00BB685B7819460B461B015B1A9B0013447F
:101C3C00BA68927813447B611EE0BB681B78184627
:101C4C0000F053FC03461A464FF4616303FB02F4A5
:101C5C00BB685B78184600F048FC03461A461346EE
:101C6C001B019B1A9B001C44BB689B78184600F018
:101C7C003CFC034623447B617969F86800F061FB06
:101C8C000346002B07D0FB6804225A74FB68002221
:101C9C001A7401232FE0FB681B685A68FB681B68E9
:101CAC0022F005025A60F86800F072FB38613B695B
:101CBC00B3F1FF3F18D03A697B699A4214D23B6961
:101CCC0003F5A83303F5C0733B613969F86800F07C
:101CDC0078FB0346002B07D0FB6804225A74FB6880
:101CEC0000221A74012306E0FB6801225A74FB6877
:101CFC0000221A74002318461C37BD4690BD000004
:101D0C0080B588B000AFF860B9607A600023BB6121
:101D1C000023FB6100237B6100233B61FB68002BEC
:101D2C0002D0BB68002B01D10123B5E0FB681B6816
:101D3C005B6803F00403002B01D00123ACE0F868CE
:101D4C0000F0CFFAB861BB69554AA2FB0323DB0A4A
:101D5C003B61BA69524BA3FB0213DB0A4FF461617E
:101D6C0001FB03F3D31A4F4AA2FB03235B09DAB23C
:101D7C00BB685A70BB694A4AA2FB0312D20A4FF4E1
:101D8C00616101FB02F29A1A464BA3FB021359093B
:101D9C000B461B015B1A9B00D11ACAB2BB689A7026
:101DAC003B69172B55D93B693F4AA2FB03231B09FF
:101DBC007B6139693C4BA3FB01231A0913465B0079
:101DCC001344DB00CA1AD2B2BB681A70F86800F070
:101DDC00DFFAF861FB69B3F1FF3F08D0FA69BB6920
:101DEC009A4204D9FA69BB69D31AFB6102E04FF03D
:101DFC00FF33FB617B692D4A02FB03F3BA69D31AEB
:101E0C00BB61B969F86800F09CFA0346002B01D05D
:101E1C00012341E0FB69B3F1FF3F0CD0FA69BB69C8
:101E2C001344FB61F969F86800F0CBFA0346002B08
:101E3C000AD0012330E0F969F86800F0C2FA0346D1
:101E4C00002B01D0012327E07969F86800F06AFBC8
:101E5C0003E03B69DAB2BB681A707B68002B1AD0BE
:101E6C00BB681B78184600F023FB03461A46BB6878
:101E7C001A70BB685B78184600F01AFB03461A46CA
:101E8C00BB685A70BB689B78184600F011FB034680
:101E9C001A46BB689A70002318462037BD4680BD91
:101EAC00C5B3A29189888888ABAAAAAA80510100DF
:101EBC0080B588B000AFF860B9607A600023FB6130
:101ECC000023BB6100237B61FB68002B02D0BB6845
:101EDC00002B01D1012397E0FB681B7C012B01D166
:101EEC00022391E0FB6801221A74FB6802225A74E7
:101EFC007B68002B0CD1BB68DA78FB68DA73BB68A3
:101F0C005A78FB685A73BB689A78FB689A731AE024
:101F1C00BB68DB78184600F0E8FA03461A46FB6803
:101F2C00DA73BB685B78184600F0DFFA03461A4692
:101F3C00FB685A73BB689B78184600F0D6FA0346C8
:101F4C001A46FB689A73FB68DB7B1846FB68597B67
:101F5C00FB689B7B1A4600F0C1FB03461A46FB68E4
:101F6C001A73FB681A7BBB681A70F86800F0B9F931
:101F7C00F861FB69264AA2FB0323DB0A7B617B69C0
:101F8C00182B3AD97B69234AA2FB03231B09224A4B
:101F9C0002FB03F3FA69D31AFB61F969F86800F0E4
:101FAC00D0F90346002B07D0FB6804225A74FB6857
:101FBC0000221A74012327E0F86800F0E9F9B861EF
:101FCC00BB69B3F1FF3F18D0BA69FB699A4214D2CE
:101FDC00BB6903F5A83303F5C073BB61B969F86835
:101FEC0000F0EFF90346002B07D0FB6804225A746B
:101FFC00FB6800221A74012306E0FB6801225A7464
:10200C00FB6800221A74002318462037BD4680BD99
:10201C00C5B3A291ABAAAAAA8051010080B586B023
:10202C0000AFF860B9607A6007F1140300210A462A
:10203C001A800A469A70FB68002B02D0BB68002BF2
:10204C0001D101233AE007F1140300221946F86884
:10205C00FFF756FE0346002B01D001232EE0FB6850
:10206C001A7BBB681A70FB68DA7BBB68DA70FB689A
:10207C005A7BBB685A70FB689A7BBB689A707B680A
:10208C00002B1AD0BB68DB78184600F011FA034617
:10209C001A46BB68DA70BB685B78184600F008FA21
:1020AC0003461A46BB685A70BB689B78184600F00A
:1020BC00FFF903461A46BB689A7000231846183776
:1020CC00BD4680BD90B589B000AFF860B9607A604C
:1020DC000023FB6107F1140300210A461A800A460B
:1020EC009A70FB68002B02D0BB68002B01D1012336
:1020FC0099E0FB681B7C012B01D1022393E0FB6868
:10210C0001221A74FB6802225A7407F1140300228C
:10211C001946F868FFF7F4FD0346002B01D00123A4
:10212C0081E03B7D1A464FF4616303FB02F27B7D39
:10213C0019460B461B015B1A9B001344BA7D1344D2
:10214C00BB617B68002B13D1BB681B781A464FF41C
:10215C00616303FB02F2BB685B7819460B461B01FB
:10216C005B1A9B001344BA6892781344FB611EE01F
:10217C00BB681B78184600F0B8F903461A464FF4B2
:10218C00616303FB02F4BB685B78184600F0ADF9A1
:10219C0003461A4613461B019B1A9B001C44BB6842
:1021AC009B78184600F0A1F903462344FB61FA69B9
:1021BC00BB699A4205D2FB6903F5A83303F5C073DA
:1021CC00FB61F969F86800F0FCF80346002B07D0B6
:1021DC00FB6804225A74FB6800221A74012322E063
:1021EC00FB681B685A68FB681B6822F002025A6085
:1021FC00FB681B681A68FB681B6842F002021A60D5
:10220C000B4B1B680A4A43F400331360084B9B6862
:10221C00074A43F400339360FB6801225A74FB684D
:10222C0000221A74002318462437BD4690BD00BF07
:10223C000004014080B582B000AF78607B681B68F9
:10224C001B6803F00203002B11D07B681B685B68D2
:10225C0003F00203002B0AD07868FEF76FF97B6855
:10226C001B685A687B681B6822F002025A60054B97
:10227C004FF400325A617B6801225A7400BF083750
:10228C00BD4680BD0004014080B584B000AF7860CD
:10229C000023FB607B68002B01D101231DE07B68D0
:1022AC001B685A687B681B6822F008025A60FEF7AC
:1022BC00CFFBF86009E0FEF7CBFB0246FB68D31AB4
:1022CC00B3F57A7F01D9032307E07B681B685B6851
:1022DC0003F00803002BEED0002318461037BD4640
:1022EC0080BD80B487B000AF786000237B82002370
:1022FC003B820023FB8100237B617B681B689B690D
:10230C007B827B681B68DB69FB817B681B689B6934
:10231C003B827A8A3B8A9A4208D03B8A1A047B68B1
:10232C001B68DB699BB213437B6104E07B8A1A0454
:10233C00FB8913437B617B6918461C37BD4680BC07
:10234C00704780B584B000AF786039600023FB73B0
:10235C00786800F05DF80346002B02D00123FB7374
:10236C0011E07B681B683A68120C9A617B681B68E9
:10237C003A6892B2DA61786800F072F80346002B82
:10238C0001D00123FB73FB7B18461037BD4680BD83
:10239C0080B485B000AF78600023FB810023BB8143
:1023AC007B681B681B6AFB817B681B685B6ABB8153
:1023BC00FB891A04BB89134318461437BD4680BCED
:1023CC00704780B584B000AF786039600023FB7330
:1023DC00786800F01DF80346002B02D00123FB7334
:1023EC0011E07B681B683A68120C1A627B681B68E8
:1023FC003A6892B25A62786800F032F80346002BC1
:10240C0001D00123FB73FB7B18461037BD4680BD02
:10241C0080B584B000AF78600023FB60FEF718FB3A
:10242C00F86009E0FEF714FB0246FB68D31AB3F51B
:10243C007A7F01D903230FE07B681B685B6803F08C
:10244C002003002BEED07B681B685A687B681B68E6
:10245C0042F010025A60002318461037BD4680BD6A
:10246C0080B584B000AF78600023FB607B681B688C
:10247C005A687B681B6822F010025A60FEF7E8FA73
:10248C00F86009E0FEF7E4FA0246FB68D31AB3F5EC
:10249C007A7F01D9032307E07B681B685B6803F034
:1024AC002003002BEED0002318461037BD4680BD0C
:1024BC0080B485B000AF0346FB710023FB6005E0E0
:1024CC00FB680133FB60FB790A3BFB71FB79092B41
:1024DC00F6D8FB68DBB21B01DAB2FB791343DBB233
:1024EC0018461437BD4680BC704780B485B000AF29
:1024FC000346FB710023FB60FB791B09DBB21A4618
:10250C0013469B0013445B00FB60FB7903F00F0345
:10251C00DAB2FB68DBB21344DBB218461437BD46A3
:10252C0080BC704780B586B000AF786039600023FE
:10253C007B6100233B610023FB600023BB607B6855
:10254C00DB7B7B617B685B7B3B617B689B7BFB60A4
:10255C000023BB606FE03B69012B11D03B69032B5F
:10256C000ED03B69052B0BD03B69072B08D03B6980
:10257C00082B05D03B690A2B02D03B690C2B17D1D9
:10258C00FB681E2B03D8FB680133FB6050E03B69F2
:10259C000C2B05D03B6901333B610123FB6047E009
:1025AC0001233B610123FB607B6901337B613FE0CD
:1025BC003B69042B08D03B69062B05D03B69092BE2
:1025CC0002D03B690B2B0CD1FB681D2B03D8FB688D
:1025DC000133FB602CE03B6901333B610123FB6061
:1025EC0026E03B69022B23D1FB681B2B03D8FB682D
:1025FC000133FB601CE0FB681C2B11D17B699BB287
:10260C00184600F039F80346002B03D0FB68013361
:10261C00FB600DE03B6901333B610123FB6007E08C
:10262C00FB681D2B04D13B6901333B610123FB602B
:10263C00BB680133BB60BA683B689A428BD37B6939
:10264C00DAB27B68DA733B69DAB27B685A73FB687F
:10265C00DAB27B689A733B69DBB2FA68D2B219467C
:10266C00786900F03BF803461A467B681A7300BF82
:10267C001837BD4680BD000080B483B000AF034660
:10268C00FB80FB8803F003039BB2002B01D00023DB
:10269C001DE0FB88104AA2FB03125209642101FBC6
:1026AC0002F29B1A9BB2002B01D001230FE0FB8896
:1026BC00094AA2FB0312D2094FF4C87101FB02F2C2
:1026CC009B1A9BB2002B01D1012300E0002318467A
:1026DC000C37BD4680BC70471F85EB5180B485B06C
:1026EC0000AF78600B46FB701346BB700023BB60D9
:1026FC000023FB607B6803F5FA63BB60FB78022B5D
:10270C002DD8FA7813465B001344DB009B1A2C4A35
:10271C00A2FB03235A08BB781A44BB681A44BB6853
:10272C00013B9B081A44BB68013B2649A1FB0313E0
:10273C005B09D21ABB68013B2249A1FB0313DB09DD
:10274C0013441A1D204BA3FB0213D11A49080B4446
:10275C0099080B46DB005B1AD31AFB6029E0FA7868
:10276C0013465B001344DB009B1A154AA2FB0323A0
:10277C005A08BB781A44BB681A44BB689B081A44B5
:10278C00BB681049A1FB03135B09D21ABB680D4946
:10279C00A1FB0313DB0913449A1C0B4BA3FB021381
:1027AC00D11A49080B4499080B46DB005B1AD31A63
:1027BC00FB60FB68DBB218461437BD4680BC704723
:1027CC00398EE3381F85EB512549922480B582B0B0
:1027DC0000AF78607B681B681B6803F00103002B5B
:1027EC0027D07B681B685B6803F00103002B20D0AB
:1027FC007B681B685B6803F00403002B0BD07868C4
:10280C0000F024F87B681B686FF004025A607B6848
:10281C0004225A7405E0786800F00FF87B680122F6
:10282C005A747B681B685A687B681B6822F001022B
:10283C005A6000BF0837BD4680BD80B483B000AF7E
:10284C00786000BF0C37BD4680BC704780B483B045
:10285C0000AF786000BF0C37BD4680BC70470000ED
:10286C0080B487B000AFF860B9607A6000237B61F8
:10287C00074B7B61BB689B007A6913447B617B6966
:10288C007A6892B21A6000BF1C37BD4680BC704794
:10289C00006C004080B485B000AF786039600023D4
:1028AC00FB600023BB60084BFB603B689B00FA6835
:1028BC001344FB60FB681B689BB2BB60BB6818468B
:1028CC001437BD4680BC7047006C0040014B186843
:1028DC00704700BF0C00002070B500250C4E0D4C4D
:1028EC00A41BA410A54209D100F034FC00250A4E0B
:1028FC000A4CA41BA410A54205D170BD56F8253076
:10290C0098470135EEE756F8253098470135F2E740
:10291C001832000818320008183200081C3200085F
:10292C0003460244934200D1704703F8011BF9E7B8
:10293C000EB46FF0004100B59CB01DAB0290069038
:10294C00079104910848094953F8042B0591006834
:10295C0002A9019300F066F80022029B1A701CB0C9
:10296C005DF804EB03B070470C0000200802FFFF79
:10297C002DE9F0478E6882469E420C469046994659
:10298C0037D88A8912F4906F31D0022325680969EF
:10299C006F1A656905EB450595FBF3F509F1010324
:1029AC003B449D4238BF1D46530530D5294600F0A7
:1029BC0037FB064650B90C234FF0FF30CAF80030F5
:1029CC00A38943F04003A381BDE8F0873A4621690F
:1029DC0000F0B6FAA38923F4906343F08003A3813B
:1029EC0026613E4426604E466561ED1BA5604E4552
:1029FC0000D94E4632464146206800F0ACFAA36836
:102A0C0000209B1BA36023681E442660DCE72A463B
:102A1C0000F060FB06460028E2D12169504600F028
:102A2C00B3FAC8E72DE9F04F1D468B899DB01F0600
:102A3C0080460C4616460FD50B696BB9402100F049
:102A4C00EFFA2060206128B90C23C8F800304FF051
:102A5C00FF30C8E0402363610023099320238DF8E5
:102A6C00293030234FF0010B8DF82A30039537466F
:102A7C003D4615F8013B0BB1252B3ED1B7EB060AB1
:102A8C000BD05346324621464046FFF771FF0130CA
:102A9C0000F0A480099B534409933B78002B00F071
:102AAC009D8000234FF0FF32CDE90523049307935B
:102ABC008DF853301A932F46052217F8011B5048F6
:102ACC0000F030FA049BD0B9D90644BF20228DF80F
:102ADC0053201A0744BF2B228DF853202A782A2A18
:102AEC0015D02F4600200A25079A394611F8013BCC
:102AFC00303B092B4DD9B8B10FE02F46B8E7404A0F
:102B0C003D46801A0BFA00F018430490D3E7039A61
:102B1C00111D12680391002A01DB079204E0524256
:102B2C0043F00203079204933B782E2B0CD17B7855
:102B3C002A2B33D1039B02371A1D1B680392002BDF
:102B4C00B8BF4FF0FF3305932E4D0322397828463A
:102B5C0000F0E8F938B14023401B03FA00F0049B65
:102B6C000137034304933978062227487E1C8DF8DD
:102B7C00281000F0D7F9002838D0244B13BB039B46
:102B8C00073323F0070308330393099B4B44099342
:102B9C006DE705FB023201200F46A6E700230A254C
:102BAC00194601370593384610F8012B303A092A9B
:102BBC0003D9002BC8D00591C6E705FB01210123E1
:102BCC000746F0E703AB00932246114B04A940469D
:102BDC00AFF30080B0F1FF3F8146D6D1A3895B06ED
:102BEC003FF535AF09981DB0BDE8F08F03AB0093EE
:102BFC002246074B04A9404600F082F8EAE700BFE2
:102C0C00E4310008EA310008EE3100080000000051
:102C1C007D2900082DE9F04791461F468A680B690B
:102C2C0006469342B8BF1346C9F8003091F84320CA
:102C3C000C46DDF8208012B10133C9F8003023684E
:102C4C00990642BFD9F800300233C9F80030256824
:102C5C0015F0060507D104F1190AE368D9F800202C
:102C6C009B1AAB4229DC94F843302268003318BF1E
:102C7C00012392062ED404F1430239463046C04754
:102C8C00013021D02368E56803F00603042B18BF3C
:102C9C000025D9F800204FF0000908BFAD1AA36831
:102CAC00226908BF25EAE5759342C4BF9B1AED184B
:102CBC001A344D451AD1002008E0012352463946FA
:102CCC003046C047013003D14FF0FF30BDE8F087EC
:102CDC000135C2E73020E11881F843005A1C94F802
:102CEC0045102244023382F84310C4E701232246E4
:102CFC0039463046C0470130E6D009F10109D8E722
:102D0C002DE9F04301F1430C0C46097E85B06E2988
:102D1C001746064698460C9A00F0B38022D86329D1
:102D2C0036D00AD8002900F0B980582900F08380E9
:102D3C0004F1420584F8421032E0642901D069297B
:102D4C00F6D120681368050603F104012AD51B6827
:102D5C001160002B03DA2D225B4284F843206F486C
:102D6C000A2239E0732900F09D8008D86F2920D001
:102D7C007029DDD1236843F02003236003E075291B
:102D8C0017D07829D4D17823654884F8453055E09C
:102D9C00136804F14205191D1B68116084F8423058
:102DAC0001238CE01B6810F0400F116018BF1BB2A0
:102DBC00CFE713682568181D1060280601D51B681D
:102DCC0002E06806FBD51B886F2914BF0A22082273
:102DDC005248002184F843106568002DA560C0F2AC
:102DEC009580216821F004012160002B3DD1002D3C
:102DFC0040F08E806546082A0BD12368DB0708D586
:102E0C00236962689A42DEBF302305F8013C05F164
:102E1C00FF35ACEB05032361CDF800803B4603AADC
:102E2C0021463046FFF7F6FE01304DD14FF0FF3012
:102E3C0005B0BDE8F083394884F845101368216863
:102E4C001D1D1B6815600A060BD5CA0744BF41F04F
:102E5C00200121601BB9226822F02002226010227E
:102E6C00B7E74D0648BF9BB2EFE76546B3FBF2F1FF
:102E7C0002FB1133C35C05F8013D0B460029F5D16B
:102E8C00B9E713682568181D6169106028061B686E
:102E9C0001D5196002E06A06FBD51980002365464E
:102EAC002361B9E71368191D11601D686268002160
:102EBC00284600F037F808B1401B60606368236156
:102ECC00002384F84330A7E723692A463946304665
:102EDC00C0470130AAD023689B0713D4E068039B3A
:102EEC009842B8BF1846A3E701234A4639463046F4
:102EFC00C04701309AD00135E368039A9B1AAB4264
:102F0C00F2DCEBE7002504F11909F5E7002BACD155
:102F1C00037804F1420584F842306CE7F53100087F
:102F2C000632000810B5C9B202449042034601D1E2
:102F3C00002303E01C7801308C42F6D1184610BDFA
:102F4C0010B5431E0A44914200D110BD11F8014B3B
:102F5C0003F8014FF7E7884210B501EB020307D8DD
:102F6C00421E99420AD011F8014B02F8014FF8E7C2
:102F7C008342F5D98118D21AD34200D110BD13F86F
:102F8C00014D01F8014DF7E738B50546002943D04E
:102F9C0051F8043C0C1F002BB8BFE41800F0D0F81B
:102FAC001E4A1368104633B9636014602846BDE8A6
:102FBC00384000F0C6B8A3420BD92168621893427E
:102FCC0001BF1A685B685218226063600460EDE709
:102FDC0013465A680AB1A242FAD919685818A04285
:102FEC000BD120680144581882421960DED1106858
:102FFC005268014419605A60D8E702D90C232B603F
:10300C00D4E7206821188A4201BF11685268091858
:10301C00216062605C60C9E738BD00BF940000208D
:10302C0070B5CD1C25F0030508350C2D38BF0C25CB
:10303C00002D064601DBA94203D90C233360002086
:10304C0070BD00F07DF8214A1468214691B9204CDE
:10305C0023681BB9304600F063F8206029463046DF
:10306C0000F05EF8431C24D10C233046336000F092
:10307C0068F8E4E70B685B1B18D40B2B0FD90B60BB
:10308C00CC18CD50304600F05CF804F10B00231D39
:10309C0020F00700C31AD3D05A42E250D0E74B6855
:1030AC008C4216BF636013600C46EBE70C46496814
:1030BC00CCE7C41C24F00304A04205D0211A3046EE
:1030CC0000F02EF80130CFD02560DBE79400002013
:1030DC0098000020F8B5074614460E4621B9BDE805
:1030EC00F8401146FFF79CBF22B9FFF74DFF25466C
:1030FC002846F8BD00F026F8A0420FD221463846EB
:10310C00FFF78EFF05460028F2D031462246FFF726
:10311C0017FF31463846FFF737FFE9E73546E7E753
:10312C0038B50023054C054608462360FDF7D6FB51
:10313C00431C02D1236803B12B6038BDCC000020A6
:10314C007047704751F8043C181F002BBCBF0B583C
:10315C00C0187047F8B500BFF8BC08BC9E46704755
:0C316C00F8B500BFF8BC08BC9E467047D8
:10317800253032643A253032643A25303264000012
:10318800253032642D253032642D2532640000004C
:10319800416C61726D2054696D650000020304057D
:1031A800060708090A0B0C0D0E0F1010010200008B
:1031B80002030405060708090A0B0C0D0E0F101070
:1031C80001020000000000000000000001020304EA
:1031D800060708090000000001020304232D302B14
:1031E8002000686C4C006566674546470030313200
:1031F8003334353637383941424344454600303157
:1032080032333435363738396162636465660000B5
:043218003101000878
:04321C000D01000898
:103220000024F40010000000010000001000002045
:10323000000000000000000000000000000000008E
:10324000000000000000000000000000000000007E
:10325000000000000000000000000000000000006E
:10326000000000000000000000000000000000005E
:10327000000000000000000000000000000000004E
:10328000000000000000000000000000000000003E
:040000050800096185
:00000001FF
