:020000040800F2
:1000000000180020D1040008590400085F0400080B
:10001000650400086B04000871040008000000007B
:10002000000000000000000000000000770400084D
:1000300083040008000000008F0400089B040008EF
:100040001905000819050008190500081905000818
:100050001905000819050008A7040008B5040008E0
:1000600019050008190500081905000819050008F8
:1000700019050008190500081905000819050008E8
:1000800019050008190500081905000819050008D8
:1000900019050008190500081905000819050008C8
:1000A00019050008190500081905000819050008B8
:1000B00019050008190500080000000019050008CE
:1000C00019050008000000000000000019050008E4
:1000D00000000000190500081905000800000000D4
:1000E000190500081905000819050008000000009E
:1000F0000000000000000000000000000000000000
:0C01000000000000000000005FF808F1A3
:10010C0010B5054C237833B9044B13B10448AFF345
:10011C0000800123237010BD0C00002000000000A3
:10012C007013000808B5034B1BB103490348AFF328
:10013C00008008BD000000001000002070130008B3
:10014C0080B483B000AF0346FB80FB88012B11D138
:10015C00134B93F90030DBB20133DBB25AB2104BC4
:10016C001A700F4B93F90030642B14D10C4B632293
:10017C001A7010E0FB88022B0DD1094B93F900305B
:10018C00002B08DD064B93F90030DBB2013BDBB2F0
:10019C005AB2034B1A7000BF0C37BD4680BC704777
:1001AC002800002080B584B000AF00F0B1F900F059
:1001BC005BF800F095F8274A3B1D07CA03C31A8069
:1001CC00254B93F90020254B83FB02139910D31771
:1001DC00C91A0B469B000B445B00D31A5BB2FB7332
:1001EC0001224FF400511E4800F076FC00224FF41F
:1001FC0000411B4800F070FCFB7B07F1100213441C
:10020C0013F80C2C174BDA60012000F0E3F9124BB9
:10021C0093F90030114A82FB03129210DB17D31AA8
:10022C005BB2BB7300224FF400510D4800F054FC3C
:10023C0001224FF400410A4800F04EFCBB7B07F151
:10024C001002134413F80C2C064BDA60012000F05A
:10025C00C1F9B5E7881300082800002067666666B8
:10026C00001001400008014080B590B000AF07F1CC
:10027C00180328220021184601F06CF83B1D0022BF
:10028C001A605A609A60DA601A610223BB6101231A
:10029C00BB621023FB6200237B6307F11803184633
:1002AC0000F04AFC0346002B01D000F099F80F2314
:1002BC007B600023BB600023FB6000233B610023B9
:1002CC007B613B1D0021184600F0B6FE0346002B57
:1002DC0001D000F085F800BF4037BD4680BD00005E
:1002EC0080B588B000AF07F1100300221A605A6085
:1002FC009A60DA60354B9B69344A43F01003936182
:10030C00324B9B6903F01003FB60FB682F4B9B691E
:10031C002E4A43F0040393612C4B9B6903F00403B6
:10032C00BB60BB68294B9B69284A43F00803936167
:10033C00264B9B6903F008037B607B6800224FF41B
:10034C002041234800F0C8FB00227F21214800F007
:10035C00C3FB4FF420433B6101237B610023BB6152
:10036C000223FB6107F110031946194800F062FAE9
:10037C007F233B6101237B610023BB610223FB6173
:10038C0007F110031946134800F054FA03233B619C
:10039C00114B7B610123BB6107F1100319460F4818
:1003AC0000F048FA00220021062000F00CFA06208A
:1003BC0000F025FA00220021072000F004FA0720A3
:1003CC0000F01DFA00BF2037BD4680BD0010024072
:1003DC00001001400008014000002110000C0140F9
:1003EC0080B400AF72B6FEE780B485B000AF154B99
:1003FC009B69144A43F001039361124B9B6903F010
:10040C000103BB60BB680F4BDB690E4A43F08053A2
:10041C00D3610C4BDB6903F080537B607B680A4B28
:10042C005B68FB60FB6823F0E063FB60FB6843F0F8
:10043C008063FB60044AFB68536000BF1437BD4601
:10044C0080BC7047001002400000014080B400AF37
:10045C00FEE780B400AFFEE780B400AFFEE780B4E7
:10046C0000AFFEE780B400AFFEE780B400AF00BF82
:10047C00BD4680BC704780B400AF00BFBD4680BC99
:10048C00704780B400AF00BFBD4680BC704780B5DC
:10049C0000AF00F083F800BF80BD80B500AF012035
:1004AC0000F032FB00BF80BD80B500AF022000F031
:1004BC002BFB00BF80BD80B400AF00BFBD4680BC2D
:1004CC00704700000C480D490D4A002302E0D45837
:1004DC00C4500433C4188C42F9D30A4A0A4C002382
:1004EC0001E013600432A242FBD3FFF7E4FF00F0FB
:1004FC000DFFFFF757FE7047000000200C00002096
:10050C00C01300080C00002030000020FEE70000A3
:10051C0080B500AF084B1B68074A43F0100313600B
:10052C00032000F045F9002000F008F8FFF75CFF0D
:10053C000023184680BD00BF0020024080B582B069
:10054C0000AF7860124B1A68124B1B7819464FF4A7
:10055C007A73B3FBF1F3B2FBF3F3184600F05DF9D9
:10056C000346002B01D001230EE07B680F2B0AD829
:10057C00002279684FF0FF3000F025F9064A7B68BD
:10058C001360002300E0012318460837BD4680BDE8
:10059C0000000020080000200400002080B400AF00
:1005AC00054B1B781A46054B1B681344034A136012
:1005BC0000BFBD4680BC7047080000202C00002006
:1005CC0080B400AF024B1B681846BD4680BC704718
:1005DC002C00002080B584B000AF7860FFF7F0FFEE
:1005EC00B8607B68FB60FB68B3F1FF3F05D0094B3B
:1005FC001B781A46FB681344FB6000BFFFF7E0FF53
:10060C000246BB68D31AFA689A42F7D800BF103773
:10061C00BD4680BD0800002080B485B000AF786076
:10062C007B6803F00703FB600C4BDB68BB60BA68AC
:10063C004FF6FF031340BB60FB681A02BB68134301
:10064C0043F0BF6343F40033BB60044ABB68D36020
:10065C0000BF1437BD4680BC704700BF00ED00E002
:10066C0080B400AF044BDB681B0A03F00703184689
:10067C00BD4680BC704700BF00ED00E080B483B085
:10068C0000AF0346FB7197F90730002B0BDBFB79AE
:10069C0003F01F02064997F907305B09012000FAA5
:1006AC0002F241F8232000BF0C37BD4680BC7047D6
:1006BC0000E100E080B483B000AF03463960FB7109
:1006CC0097F90730002B0ADB3B68DAB20C4997F933
:1006DC0007301201D2B20B4483F800230AE03B68C6
:1006EC00DAB20849FB7903F00F03043B1201D2B2D2
:1006FC000B441A7600BF0C37BD4680BC704700BF58
:10070C0000E100E000ED00E080B489B000AFF860DB
:10071C00B9607A60FB6803F00703FB61FB69C3F106
:10072C000703042B28BF0423BB61FB690433062B8E
:10073C0002D9FB69033B00E000237B614FF0FF32E1
:10074C00BB6902FA03F3DA43BB681A407B699A402F
:10075C004FF0FF317B6901FA03F3D9437B680B40FF
:10076C00134318462437BD4680BC704780B582B011
:10077C0000AF78607B68013BB3F1807F01D301232C
:10078C000FE00A4A7B68013B53600F214FF0FF30AA
:10079C00FFF790FF054B00229A60044B07221A606A
:1007AC00002318460837BD4680BD00BF10E000E0AE
:1007BC0080B582B000AF78607868FFF72DFF00BF7E
:1007CC000837BD4680BD80B586B000AF0346B96022
:1007DC007A60FB7300237B61FFF742FF78617A68D4
:1007EC00B9687869FFF790FF024697F90F30114608
:1007FC001846FFF75FFF00BF1837BD4680BD80B5B8
:10080C0082B000AF0346FB7197F907301846FFF72B
:10081C0035FF00BF0837BD4680BD80B582B000AF44
:10082C0078607868FFF7A2FF034618460837BD4684
:10083C0080BD000080B48BB000AF786039600023BD
:10084C007B6200233B6221E101227B6A02FA03F303
:10085C00FB613B681B68FA691340BB61BA69FB69B1
:10086C009A4240F010813B685B68122B34D0122BFB
:10087C000DD8022B2BD0022B04D8002B31D0012BFE
:10088C001CD048E0032B43D0112B1BD043E0864AED
:10089C00934226D0844A934206D8844A934220D06D
:1008AC00834A93421DD036E0824A934219D0824A41
:1008BC00934216D0814A934213D02CE03B68DB68FC
:1008CC003B6228E03B68DB6804333B6223E03B6817
:1008DC00DB6808333B621EE03B68DB680C333B6231
:1008EC0019E03B689B68002B02D104233B6212E0A9
:1008FC003B689B68012B05D108233B627B68FA6936
:10090C001A6108E008233B627B68FA695A6102E0CD
:10091C0000233B6200BFBB69FF2B01D87B6801E061
:10092C007B6804337B61BB69FF2B02D87B6A9B001D
:10093C0002E07B6A083B9B003B617B691A680F21D4
:10094C003B6901FA03F3DB431A40396A3B6901FA4C
:10095C0003F31A437B691A603B685B6803F08053AE
:10096C00002B00F09080564B9B69554A43F00103D5
:10097C009361534B9B6903F00103BB60BB68514A05
:10098C007B6A9B08023352F82330FB607B6A03F0CE
:10099C0003039B000F2202FA03F3DB43FA681340B4
:1009AC00FB607B68484A93420DD07B68474A934270
:1009BC0007D07B68464A934201D1022304E003230B
:1009CC0002E0012300E000237A6A02F003029200A5
:1009DC009340FA681343FB603A497B6A9B080233E5
:1009EC00FA6841F823203B685B6803F48033002BE2
:1009FC0006D0384B1A683749BB6913430B6006E0C5
:100A0C00344B1A68BB69DB43324913400B603B68BB
:100A1C005B6803F40033002B06D02E4B5A682D492B
:100A2C00BB6913434B6006E02A4B5A68BB69DB4336
:100A3C00284913404B603B685B6803F48013002B20
:100A4C0006D0244B9A682349BB6913438B6006E09C
:100A5C00204B9A68BB69DB431E4913408B603B6893
:100A6C005B6803F40013002B06D01A4BDA681949A3
:100A7C00BB691343CB6006E0164BDA68BB69DB43FA
:100A8C0014491340CB607B6A01337B623B681A6864
:100A9C007B6A22FA03F3002B7FF4D6AE00BF2C370F
:100AAC00BD4680BC704700BF000021100000111033
:100ABC000000121000003110000032100000221053
:100ACC00001002400000014000080140000C0140F1
:100ADC00001001400004014080B483B000AF786086
:100AEC000B467B8013467B707B78002B03D07A8877
:100AFC007B681A6103E07B881A047B681A6100BF6B
:100B0C000C37BD4680BC704780B582B000AF034641
:100B1C00FB80084B5A69FB881340002B06D0054A12
:100B2C00FB885361FB881846FFF70AFB00BF0837A8
:100B3C00BD4680BD0004014080B586B000AF786032
:100B4C007B68002B01D101236CE27B681B6803F0EE
:100B5C000103002B00F08780924B5B6803F00C03C1
:100B6C00042B0CD08F4B5B6803F00C03082B12D1B9
:100B7C008C4B5B6803F48033B3F5803F0BD1894B0E
:100B8C001B6803F40033002B6CD07B685B68002B74
:100B9C0068D1012346E27B685B68B3F5803F06D1E0
:100BAC00804B1B687F4A43F4803313602EE07B68D4
:100BBC005B68002B0CD17B4B1B687A4A23F4803387
:100BCC001360784B1B68774A23F4802313601DE075
:100BDC007B685B68B3F5A02F0CD1724B1B68714A14
:100BEC0043F4802313606F4B1B686E4A43F48033CD
:100BFC0013600BE06B4B1B686A4A23F48033136061
:100C0C00684B1B68674A23F4802313607B685B681E
:100C1C00002B13D0FFF7D4FC386108E0FFF7D0FCB1
:100C2C0002463B69D31A642B01D90323FAE15D4BCD
:100C3C001B6803F40033002BF0D014E0FFF7C0FC6A
:100C4C00386108E0FFF7BCFC02463B69D31A642B01
:100C5C0001D90323E6E1534B1B6803F40033002B4B
:100C6C00F0D100E000BF7B681B6803F00203002B8F
:100C7C0063D04C4B5B6803F00C03002B0BD0494B3F
:100C8C005B6803F00C03082B1CD1464B5B6803F428
:100C9C008033002B16D1434B1B6803F00203002B4F
:100CAC0005D07B681B69012B01D00123BAE13D4BB8
:100CBC001B6823F0F8027B685B69DB00394913433E
:100CCC000B603AE07B681B69002B20D0364B01226D
:100CDC001A60FFF775FC386108E0FFF771FC0246FB
:100CEC003B69D31A022B01D903239BE12D4B1B68C3
:100CFC0003F00203002BF0D02A4B1B6823F0F80200
:100D0C007B685B69DB00274913430B6015E0264BBE
:100D1C0000221A60FFF754FC386108E0FFF750FC22
:100D2C0002463B69D31A022B01D903237AE11D4BEE
:100D3C001B6803F00203002BF0D17B681B6803F0E7
:100D4C000803002B3AD07B689B69002B19D0174BFA
:100D5C0001221A60FFF734FC386108E0FFF730FC21
:100D6C0002463B69D31A022B01D903235AE10D4BDE
:100D7C005B6A03F00203002BF0D0012000F0A8FA0C
:100D8C001CE00A4B00221A60FFF71AFC38610FE0D6
:100D9C00FFF716FC02463B69D31A022B08D9032332
:100DAC0040E100BF00100240000042428004424279
:100DBC009E4B5B6A03F00203002BE9D17B681B6836
:100DCC0003F00403002B00F0A6800023FB75974B67
:100DDC00DB6903F08053002B0DD1944BDB69934AF4
:100DEC0043F08053D361914BDB6903F08053BB60BC
:100DFC00BB680123FB758E4B1B6803F48073002BBF
:100E0C0018D18B4B1B688A4A43F480731360FFF72D
:100E1C00D7FB386108E0FFF7D3FB02463B69D31AD6
:100E2C00642B01D90323FDE0814B1B6803F4807311
:100E3C00002BF0D07B68DB68012B06D17B4B1B6A47
:100E4C007A4A43F0010313622DE07B68DB68002BC8
:100E5C000CD1764B1B6A754A23F001031362734B5A
:100E6C001B6A724A23F0040313621CE07B68DB6884
:100E7C00052B0CD16D4B1B6A6C4A43F004031362B7
:100E8C006A4B1B6A694A43F0010313620BE0674B20
:100E9C001B6A664A23F001031362644B1B6A634AA4
:100EAC0023F0040313627B68DB68002B15D0FFF77B
:100EBC0087FB38610AE0FFF783FB02463B69D31AD4
:100ECC0041F28832934201D90323ABE0574B1B6AA2
:100EDC0003F00203002BEED014E0FFF771FB386136
:100EEC000AE0FFF76DFB02463B69D31A41F28832E8
:100EFC00934201D9032395E04C4B1B6A03F0020388
:100F0C00002BEED1FB7D012B05D1484BDB69474A09
:100F1C0023F08053D3617B68DB69002B00F0818068
:100F2C00424B5B6803F00C03082B61D07B68DB69D8
:100F3C00022B46D13F4B00221A60FFF741FB386170
:100F4C0008E0FFF73DFB02463B69D31A022B01D99F
:100F5C00032367E0354B1B6803F00073002BF0D1C3
:100F6C007B681B6AB3F5803F08D1304B5B6823F478
:100F7C0000327B689B682D4913434B602B4B5B689D
:100F8C0023F474127B68196A7B685B6A0B432749EC
:100F9C0013434B60274B01221A60FFF711FB38619A
:100FAC0008E0FFF70DFB02463B69D31A022B01D96F
:100FBC00032337E01D4B1B6803F00073002BF0D0AC
:100FCC002FE01C4B00221A60FFF7FAFA386108E098
:100FDC00FFF7F6FA02463B69D31A022B01D9032319
:100FEC0020E0124B1B6803F00073002BF0D118E0CB
:100FFC007B68DB69012B01D1012313E00B4B5B6890
:10100C00FB60FB6803F480327B681B6A9A4206D152
:10101C00FB6803F470127B685B6A9A4201D001236F
:10102C0000E0002318461837BD4680BD0010024072
:10103C00007000406000424280B584B000AF786020
:10104C0039607B68002B01D10123D0E06A4B1B680F
:10105C0003F007033A689A4210D9674B1B6823F0D8
:10106C00070265493B6813430B60634B1B6803F035
:10107C0007033A689A4201D00123B8E07B681B68E9
:10108C0003F00203002B20D07B681B6803F00403E1
:10109C00002B05D0594B5B68584A43F4E06353600E
:1010AC007B681B6803F00803002B05D0534B5B686F
:1010BC00524A43F460535360504B5B6823F0F00288
:1010CC007B689B684D4913434B607B681B6803F03E
:1010DC000103002B40D07B685B68012B07D1474B89
:1010EC001B6803F40033002B15D101237FE07B68D0
:1010FC005B68022B07D1414B1B6803F00073002B7C
:10110C0009D1012373E03D4B1B6803F00203002B54
:10111C0001D101236BE0394B5B6823F003027B6840
:10112C005B68364913434B60FFF74AFAF8600AE0F4
:10113C00FFF746FA0246FB68D31A41F28832934213
:10114C0001D9032353E02D4B5B6803F00C027B6841
:10115C005B689B009A42EBD1274B1B6803F007039B
:10116C003A689A4210D2244B1B6823F0070222499A
:10117C003B6813430B60204B1B6803F007033A6872
:10118C009A4201D0012332E07B681B6803F0040310
:10119C00002B08D0194B5B6823F4E0627B68DB689A
:1011AC00164913434B607B681B6803F00803002B44
:1011BC0009D0124B5B6823F460527B681B69DB001F
:1011CC000E4913434B6000F021F801460B4B5B6852
:1011DC001B0903F00F030A4AD35C21FA03F3094AF3
:1011EC001360094B1B681846FFF7A8F90023184633
:1011FC001037BD4680BD00BF0020024000100240E9
:10120C00A8130008000000200400002090B48AB04D
:10121C0000AF2A4B3C1D0FCB84E80F00284B1B88DA
:10122C003B800023FB610023BB6100237B62002316
:10123C007B6100233B62234B5B68FB61FB6903F022
:10124C000C03042B02D0082B03D02DE01E4B3B6269
:10125C002DE0FB699B0C03F00F0307F128021344EC
:10126C0013F8243C7B61FB6903F48033002B13D00F
:10127C00144B5B685B0C03F0010307F12802134469
:10128C0013F8283CBB617B690F4A02FB03F2BB6974
:10129C00B2FBF3F37B6204E07B690C4A02FB03F3C1
:1012AC007B627B6A3B6202E0074B3B6200BF3B6A9E
:1012BC0018462837BD4690BC704700BF94130008F1
:1012CC00A41300080010024000127A0000093D002F
:1012DC0080B485B000AF78600A4B1B680A4AA2FB49
:1012EC0003235B0A7A6802FB03F3FB6000BFFB6815
:1012FC005A1EFA60002BF9D100BF1437BD4680BCD2
:10130C00704700BF00000020D34D621070B500255F
:10131C000C4E0D4CA41BA410A54209D100F022F8D0
:10132C0000250A4E0A4CA41BA410A54205D170BD81
:10133C0056F8253098470135EEE756F82530984792
:10134C000135F2E7B8130008B8130008B813000809
:10135C00BC13000803460244934200D1704703F8C3
:10136C00011BF9E7F8B500BFF8BC08BC9E467047F6
:0C137C00F8B500BFF8BC08BC9E467047E6
:101388003F065B4F666D7D077F6F00000203040513
:10139800060708090A0B0C0D0E0F101001020000B9
:1013A800000000000000000001020304060708090D
:0413B80031010008F7
:0413BC000D01000817
:0C13C0000024F4001000000001000000F8
:04000005080004D11A
:00000001FF
